S01700006275696C642F697269732F6D61696E2E7372656343
S11300000C9493000C9471200C947B200C94852008
S11300100C948F200C9499200C94A3200C94AD2064
S11300200C94B7200C94B2000C94B2000C94B2005F
S11300300C94B2000C94A9210C94B2000C94ED2100
S11300400C94FD220C94AE220C94E7220C94F22220
S11300500C9436230C94B2000C94B2000C94B200AD
S11300600C9415220C94B2000C94B2000C94B200BF
S11300700C94B2000C94E1200C94B2000C94B200E5
S11300800C94B2000C94B2000C94B2000C94B20024
S11300900C94B2000C94B2000C94B2000C94F21FB5
S11300A00C94B2000C94B2000C94B2000C94B20004
S11300B00C94B2000C94B2000C94B2000C94B200F4
S11300C00C94B2000C94B2000C94B2008115A015EB
S11300D0A615001602161916BC161E173D17C517CD
S11300E0271844186918BB196A1B931B971B9C1B80
S11300F0E41B6C1CAE1CC01C391D3E1D421D7E1D24
S1130100901D9117C21DDA1D001E021E081E251E19
S1130110391E921ED41E761F181F2C1F9C1FBA1F37
S113012000020E060C0411241FBECFEFD1E2DEBF85
S1130130CDBF12E0A0E0B2E0E6E9FBE400E00BBFD3
S113014002C007900D92A432B107D9F714E0A4E2DB
S1130150B2E001C01D92A739B107E1F70E94612303
S11301600C94C9250C9400002F980895289A08959A
S1130170209A08959FB7F89480919C028F5F809392
S11301809C029FBF08950DB407FEFDCF8EB5089560
S1130190982F0DB407FEFDCF8EB59EBD0895289807
S11301A008959C012627022E2295207F2025032EC8
S11301B0322F22952F700226269532272327220FCD
S11301C0220F220F2025C901089580919F03809357
S11301D0BC000895779A08956F98089543980895F8
S11301E0439A08956F9A0895779808955B980895AF
S11301F05B9A08958091D6038F3F69F0E82FF0E071
S1130200E759FD4F90819093D6039F3F11F490934B
S11302108E049FEF908308958091B0008093B00086
S11302208091B60081FDFCCF08959FB7F894E82F24
S1130230F0E0E759FD4F20812F3F49F421E030E001
S113024040918E04481729F020E030E002C021E0FC
S113025030E0211110C02091D6032F3F19F4809370
S1130260D60306C0E0918E04F0E0E759FD4F808389
S113027080938E0403C085E09FBF089580E0FCCF87
S113028082E20C9415018AE10C9415019FB7F8944D
S113029020913F02211111C021E020933F0280935D
S11302A0B1039FBF80913E02811104C083E00E948C
S11302B0150108C020933D0205C02091B103281305
S11302C003C09FBF80E00895E82FF0E0EB55FD4F99
S11302D020812F3F49F421E030E040911F0248176C
S11302E029F020E030E002C021E030E0211111C00B
S11302F0209120022F3F19F48093200206C0E09140
S11303001F02F0E0EB55FD4F808380931F0280E0D5
S113031001C085E09FBF08958CE00C9415012FB7B0
S1130320F89480910802909109022FBF08950F93C9
S11303301F934FB7F89400916A0310916B032091B7
S11303406C0330916D038091840090918500B09B83
S113035008C00F5F1F4F2F4F3F4F80918400909133
S113036085004FBF980111270027A0E0B0E0082BBB
S1130370192B2A2B3B2BB801C9011F910F9108950A
S1130380EFB7F89420918400309185002D5F3F4FA2
S1130390A901481B590B4617570718F49B01280F4E
S11303A0391F2115310511F421E030E021503109C4
S11303B0309389002093880082E086BB80916F008F
S11303C0826080936F00EFBF08950F931F93CF93C4
S11303D0DF938C012FB7F894C091A603D091A703A3
S11303E0CE018F5E9E4F9093A7038093A6032FBFE9
S11303F084E20E941501CE01B8010E9436259C01B9
S11304002A5D3E4FC901DF91CF911F910F9108954D
S1130410CF939FB7F89420913C0221111FC021E093
S113042020933C028093B5029FBFCFB7F89480918C
S11304301B02843089F480913C02813021F485E0F0
S11304400E94150109C0823039F48091B50280936D
S11304501B0283E080933C02CFBF05C02091B5020C
S1130460281303C09FBF80E027C0E82FF0E0ED50C1
S1130470FD4F20812F3F49F421E030E040911C02E0
S1130480481729F020E030E002C021E030E02111DB
S113049011C020911D022F3F19F480931D0206C044
S11304A0E0911C02F0E0ED50FD4F808380931C022C
S11304B080E001C085E09FBFCF9108958FB7F89485
S11304C09091BC0090939F038FBF08959FB7F894B9
S11304D020912802211111C021E020932802809349
S11304E0B0039FBF80912702811104C08EE10E9456
S11304F0150108C02093260205C02091B0032813DB
S113050003C09FBF80E00895E82FF0E0E252FC4F63
S113051020812F3F49F421E030E040910B0248173D
S113052029F020E030E002C021E030E0211111C0C8
S113053020910C022F3F19F480930C0206C0E09125
S11305400B02F0E0E252FC4F808380930B0280E0C8
S113055001C085E09FBF08950F931F938FB7F89450
S11305609091B200009161021091620220916302A5
S113057030916402B99B0CC04091B3009091B200D9
S11305800F5F1F4F2F4F3F4F040F111D211D311DB2
S1130590090F111D211D311D8FBFB801C9011F9104
S11305A00F910895CF93DF93D82FC8E0D7FF03C0EE
S11305B00E94EA0002C00E94F400DD0F0E94F000D5
S11305C00E94EE00C15091F7DF91CF910895CF932F
S11305D0DF93D0E0C0E00E94F0006799C160D7309B
S11305E009F0CC0F0E94EE00DF5FD830A1F70E9423
S11305F0F2000E94F4000E94F0000E94EE000E94AB
S1130600EC000E94EA008C2FDF91CF910895CF93E4
S1130610CFB7F89490912C02933061F590910E022B
S1130620981328C0809110028F3FB1F0E82FF0E0BA
S1130630E25AFD4F9081909310029F3F11F49093E2
S11306400F029FEF90838093490290930E0281E002
S113065080932C0285E109C082E080930E021092FF
S11306602C0281E080932B0287E10E941501CFBF09
S113067080E002C0CFBF81E0CF9108959FB7F89486
S113068020912C02211111C021E020932C0280938F
S113069049029FBF80912B02811104C086E10E9410
S11306A0150108C020932A0205C02091490228138D
S11306B003C09FBF80E00895E82FF0E0E25AFD4FA9
S11306C020812F3F49F421E030E040910F02481788
S11306D029F020E030E002C021E030E0211111C017
S11306E0209110022F3F19F48093100206C0E0916C
S11306F00F02F0E0E25AFD4F808380930F0280E006
S113070001C085E09FBF0895CF92DF92EF92FF92E0
S11307100F931F93CF93CFB7F8942091B300909188
S1130720B20087B3291711F081FF02C0CFBF78C090
S11307308091B002811102C086EE3AC00E94AC02E0
S1130740009158021091590220915A0230915B0293
S1130750C090EA03D090EB03E090EC03F090ED033B
S1130760601B710B820B930B6C157D058E059F0529
S113077028F01092B00286EE31E01BC0D701C6010A
S1130780800F911FA21FB31F40916102509162021A
S11307906091630270916402841B950BA60BB70BE6
S11307A0873E9105A105B10538F6823008F482E050
S11307B030E0282F21509091B60093FDFCCF90910A
S11307C0B200291301C0282F809161029091620226
S11307D0A0916302B0916402AC01BD014F5F5F4F11
S11307E06F4F7F4F420F511D611D711D48175907EF
S11307F06A077B0710F4282F20958091B60083FDAB
S1130800FCCF2093B300CFBF332351F081E1CF91CC
S11308101F910F91FF90EF90DF90CF900C941501F2
S1130820CF911F910F91FF90EF90DF90CF9008959B
S1130830000000005D9A000000005D980895CF93C9
S1130840CFB7F89490913F02933061F590911E02D6
S1130850981328C0809120028F3FB1F0E82FF0E078
S1130860EB55FD4F9081909320029F3F11F490939C
S11308701F029FEF90838093B10390931E0281E047
S113088080933F0282E009C082E080931E021092AE
S11308903F0281E080933E0284E00E941501CFBFB5
S11308A080E002C0CFBF81E0CF910895CF932FB7EE
S11308B0F89480912802882351F090910A02923092
S11308C019F080E090E005C081508230D0F781E0DB
S11308D090E02FBF892BC1F0CFB7F89480910A0222
S11308E0823089F480912802813021F48DE10E94C4
S11308F0150109C0823039F48091B00380930A0253
S113090083E080932802CFBFCF910895FC0120811A
S113091031813093B7022093B60282819381909300
S1130920B9028093B80280E00C943E03CF93CFB712
S1130930F89480913302833059F580911202811129
S113094027C0809114028F3FB1F0E82FF0E0E65504
S1130950FD4F9081909314029F3F11F490931302E2
S11309609FEF9083809357029093120281E08093CB
S113097033028EE008C081E08093120210923302A9
S11309808093320280E10E941501CFBF80E002C053
S1130990CFBF81E0CF9108950E94EC000E94EA004D
S11309A09FB7F894EF9880E88CBBEAE6F0E080818A
S11309B08068808380818F7B8083EF9A9FBF0895B6
S11309C0CF92DF92EF92FF92CF93C82F6A017B01FF
S11309D00E94AC0229E0C29FF0011124E059FC4FAF
S11309E06083718382839383C482D582E682F78293
S11309F0808581608260808782E1CF91FF90EF9053
S1130A00DF90CF900C9415012FB7F89480913302A6
S1130A10811112C081E080933302109257022FBFDC
S1130A2090913202911104C08FE00E94150102C01E
S1130A308093310280E0089580915702811101C0B2
S1130A4023C08091AA028F3F49F481E090E0309165
S1130A501302332329F080E090E002C081E090E0AB
S1130A60811111C0809114028F3F19F41092140265
S1130A7006C0E0911302F0E0E655FD4F108210929B
S1130A80130280E001C085E02FBF0895CF93CFB754
S1130A90F89480912402823041F580910102811101
S1130AA024C0809103028F3FB1F0E82FF0E0EA59AF
S1130AB0FD4F9081909303029F3F11F490930202A3
S1130AC09FEF90838093010281E08093240287E268
S1130AD00E94150104C080930102109224028CB577
S1130AE08F7B8CBDCFBF80E002C0CFBF81E0CF91B0
S1130AF00895CF93CFB7F89480912502823029F5D9
S1130B0080910402811121C0809106028F3FB1F0CF
S1130B10E82FF0E0E356FD4F9081909306029F3F4B
S1130B2011F4909305029FEF90838093040281E077
S1130B308093250280E20E94150104C08093040280
S1130B4010922502CFBF80E002C0CFBF81E0CF91D9
S1130B500895CF93C0E0C03128F4C0FD03C00E94C3
S1130B60F80002C00E94F6000E941804CF5FC5314D
S1130B7091F7CF9108958CB58F7B8CBD229A2398E1
S1130B80219A0E94B8008CB580618CBD8CB58F779A
S1130B908CBD8CB5877F8CBD8CB58B7F8CBD8CB5A3
S1130BA080648CBD8DB581608DBD8CB58C7F8CBD12
S1130BB00895CF93CFB7F8940E945E0280919F036B
S1130BC08E7F806980939F030E94E500CFBFCF9101
S1130BD00895EF92FF920F931F93CF93DF9300003A
S1130BE00FE010E0C0E0D0E00E94F6005D9A000043
S1130BF0000089B15D9882FBEE24E0F8F12C002E10
S1130C0002C0EE0CFF1C0A94E2F7CE0DDF1D01506A
S1130C10110950F7CE01DF91CF911F910F91FF90F1
S1130C20EF900895CF93DF931F92CDB7DEB78983FA
S1130C300E94CF00898180688EBD80E00E94C80038
S1130C400E94C30089830E94B60089810F90DF91BE
S1130C50CF9108951F93CF93DF931F92CDB7DEB743
S1130C60182F69830E94CF00912F906C9EBD8981BB
S1130C700E94C8000E94C3000F90DF91CF911F9182
S1130C800C94B600BC0181E08093FB028093A00326
S1130C9080918400909185000C94C00180E00E94B2
S1130CA046019FB7F89482B122E0822782B99FBFA0
S1130CB0089590E090939B0280939A024E9710F4CB
S1130CC0109A01C0129881E00C946602CF93DF93CE
S1130CD0FC01928180E02181822B85FF15C08774FD
S1130CE09C7C8134984881F4978180E02681EC01D2
S1130CF0C22B0E948F0121E030E0C817D90711F000
S1130D0020E030E0C90102C080E090E0DF91CF91A3
S1130D10089590917C00492F4F71929596959695E0
S1130D20937021F421E030E0841711F020E030E0EA
S1130D309091990220FB91F98F71282F220F220F95
S1130D409378922B9093990280937C00292F2170A1
S1130D508091D7039091D803863831E0930780F4CB
S1130D60833C910578F48136910570F480339105C4
S1130D7068F48831910560F40C9760F082E00BC050
S1130D8087E009C086E007C085E005C084E003C0B1
S1130D9083E001C080E08860806120FB85F9806485
S1130DA0806880937A000895CF93CFB7F894909198
S1130DB03B029330C9F590911802981335C0809185
S1130DC01A028F3FC1F0E82FF0E0EC51FC4F908104
S1130DD090931A029F3F11F4909319029FEF90830E
S1130DE0809393029093180281E080933B0288E001
S1130DF00E94150116C084E08093180210923B02F1
S1130E0080913A02813069F40E945E0280919F03CE
S1130E108A7680939F030E94E5005898599810920F
S1130E203A02CFBF80E002C0CFBF81E0CF910895E6
S1130E300E94D90583E00C94D406811110C08091DE
S1130E40BB009091C903E0919E02F0919F02E90FCB
S1130E50F11D80838091C9038F5F8093C903209122
S1130E60C90380914D02281788F430E090E001977F
S1130E702817390749F48091910482FD05C08091B7
S1130E809F038F7B80939F030C94E50080919F03C5
S1130E90282F2E7F9091910491FF0AC09D7F9093FB
S1130EA09104822F806180939F038091B90003C0D5
S1130EB08E7780939F030E94E50081E080933A023D
S1130EC080911702833029F40E94180789E10C9459
S1130ED015010895CF93CFB7F8948091240281111E
S1130EE00BC081E0809324021092010287E20E94E9
S1130EF01501CFBF80E024C0809166028F3F49F482
S1130F0081E090E020910202222329F080E090E029
S1130F1002C081E090E0811111C0809103028F3FF3
S1130F2019F41092030206C0E0910202F0E0EA59BB
S1130F30FD4F10821092020280E001C085E0CFBF15
S1130F40CF910895CF938FB7F894909101029111A6
S1130F5006C090912402923011F48FBF13C08FBF4A
S1130F60CFB7F8948091240281110EC082E080935F
S1130F702402109201020E94BB05CFBF0E94B80058
S1130F800E94B60081E004C0CFBF0E946A0780E0DF
S1130F90CF910895CF933B9A0E94EE000E94EC00FB
S1130FA00E94EA00EF980E94F2000E94EA000E9468
S1130FB0EE00C9E00E94F0000E94EE00C150D1F79B
S1130FC00E94F2000E94EA000E94EE000E94F000DB
S1130FD00E94F4000E94EE000E94F0000E94EA00C9
S1130FE00E94EE0080914F02909150028F719927D8
S1130FF09093500280934F020E94D2020E94EC0010
S11310000E94EA000E94F00067995BC00E94EE0013
S113101080914F029091500286309105D9F138F4B5
S11310208330910579F0059709F049C01EC08730D7
S11310309105F1F04E9709F042C04BE050E060E0BA
S113104070E00FC00E94CC0480912F0280FF05C085
S11310504AEF50E060E070E004C04AE451E060E030
S113106070E083E00E94E0042AC00E94CC04F0CF28
S11310700E94E702C82F0E94E7020E94F2000E9429
S1131080EA000E94F0000E94EE00C0932F0284E167
S11310900E9415018091BD030E94D2020E94EC00BF
S11310A00E94EA000E94F00067990FC00E94EE00BF
S11310B08091BD0380932F0284E10E94150180E09A
S11310C008C01092300281E004C081E080932E02B7
S11310D0F3CFCF91089580912A02813029F480932F
S11310E02D0282E00E9408028FB7F89410922A021F
S11310F010922B028FBF089580913102813021F428
S1131100809334020E9408028FB7F894109231023F
S1131110109232028FBF089580913D02813029F4EC
S11311208093400280E00E9408028FB7F8941092E6
S11311303D0210923E028FBF0895CF93DF939FB775
S1131140F89420913B0221113DC0D1E0D0933B02A1
S1131150809393029FBFCFB7F89480913A02811194
S113116017C0509851981092B90081E48093B80048
S11311701092BA001092BC000E945E0280919F03FC
S11311808E7F846080939F030E94E500D0933A028F
S1131190CFBFCFB7F89480911802843089F480913E
S11311A03B02813021F488E00E94150109C082309D
S11311B039F4809193028093180283E080933B0278
S11311C0CFBF05C020919302281303C09FBF80E0C6
S11311D027C0E82FF0E0EC51FC4F20812F3F49F469
S11311E021E030E040911902481729F020E030E076
S11311F002C021E030E0211111C020911A022F3FDA
S113120019F480931A0206C0E0911902F0E0EC513F
S1131210FC4F80838093190280E001C085E09FBF6A
S1131220DF91CF910895982F91509830E8F49091E0
S1131230AE0291111BC091E09093AE0290933003E3
S11312408093B80390E0019721E030E001C0220FC1
S11312508A95EAF78091880482278093880481E044
S11312600E949D0880E0089582E0089585E0089535
S1131270982F91509830E8F49091EE0391111BC08F
S113128091E09093EE039093E9038093A50390E09B
S1131290019721E030E001C0220F8A95EAF780919E
S11312A0F20282278093F20280E00E949D0880E08F
S11312B0089582E0089585E00895982F915098301C
S11312C0E8F49091EE0391111BC091E09093EE032A
S11312D090934E028093A50390E0019721E030E0C3
S11312E001C0220F8A95EAF78091F202822B809343
S11312F0F20280E00E949D0880E0089582E0089553
S113130085E00895982F91509830E8F49091AE02BA
S113131091111BC091E09093AE029093410280938F
S1131320B80390E0019721E030E001C0220F8A95D4
S1131330EAF780918804822B8093880481E00E94DC
S11313409D0880E0089582E0089585E00895CF9394
S11313502FB7F89480913F02882351F090911E0298
S1131360923019F080E090E005C081508230D0F7CF
S113137081E090E02FBF892BC1F0CFB7F894809122
S11313801E02823089F480913F02813021F482E090
S11313900E94150109C0823039F48091B103809311
S11313A01E0283E080933F02CFBFCF910895CF9375
S11313B0CFB7F89490913C02933041F590911B0281
S11313C0981324C080911D028F3FC1F0E82FF0E0F4
S11313D0ED50FD4F908190931D029F3F11F4909327
S11313E01C029FEF90838093B50290931B0281E0CF
S11313F080933C0285E00E94150105C084E080933F
S11314001B0210923C02CFBF80E002C0CFBF81E03C
S1131410CF91089583E00C94D7090F931F93CF9332
S1131420C62F813009F130F08230A9F1833009F000
S113143050C040C08091810490918204481759079C
S113144009F047C0213009F044C0025F124009F09E
S113145040C00E94D90580E00E94D406C11102C098
S113146086E032C087E030C0809147029091480204
S11314704817590771F5213061F50858144049F5AA
S11314800E94D90581E00E94D406C11102C089E0FE
S11314901BC08AE019C0109229020E940A0A0E9405
S11314A0D90582E00E94D406CC2311F08BE10CC054
S11314B08CE10AC0662339F00E941807CF911F916E
S11314C00F910C94430188E1CF911F910F910C94DB
S11314D01501CF911F910F9108950F931F93CF93EF
S11314E0C82F0E945E0290919F039A7F90939F035E
S11314F00E94E5000E945E0290919F039460909385
S11315009F030E94E50081E080933A0280913902B2
S1131510882399F0809117028330F1F40E94180710
S1131520CC2329F0CF911F910F910C94430189E1B1
S1131530CF911F910F910C94150100919E0210916F
S11315409F024091BA025091BB0220914D026C2F30
S1131550809117020E940D0ACF911F910F91089557
S11315600F931F938091C90390914D02891780F4C2
S1131570E0919E02F0919F02E80FF11D90819093FB
S1131580BB008F5F8093C9031F910F910C94E500FA
S113159080919F03282F2E7F9091910491FF06C084
S11315A09D7F90939104822F806101C08E778093F8
S11315B09F030E94E50081E080933A0200919E021D
S11315C010919F024091BA025091BB0220914D02AA
S11315D060E0809117020E940D0A1F910F910895F7
S11315E01F93CF93DF931F92CDB7DEB79FB7F894C5
S11315F0709117029FBF781711F081E044C08FB734
S1131600F89490913A02913039F572E070933A026D
S11316108FBF8FB7F8945093BB024093BA023093B4
S11316209F0220939E0290934D0260939104109226
S1131630C903109239028FBF69830E945E021FB7EB
S1131640F89480919F038F7E982F916C90939F03C1
S1131650698160FF11C007C08FBF911102C084E08F
S113166012C085E010C0816E80939F0384E0809354
S11316703A020E94E50005C083E080933A020E948A
S1131680B00A1FBF80E00F90DF91CF911F910895A2
S113169080E00C94D70981E00C94D70982E00C9483
S11316A0D709843029F138F48230A1F0C8F48130AC
S11316B009F03CC007C0873049F1883061F18530BA
S11316C0A9F51EC0611106C082E00E94380981118B
S11316D001C00895109240020E94480B0C948C089B
S11316E061110EC084E00E943809811109C0089577
S11316F0611106C085E00E943809811101C0089576
S1131700109234020E944B0B0C947C08611108C0A7
S113171088E00C943809611103C084E00C94130927
S113172010922D020E944E0B0C946B080895843085
S113173081F130F4813051F0833009F045C01BC091
S1131740863069F1873009F03FC031C01092290218
S11317500E940A0A80912602813029F4809329028A
S113176083E00E9408028FB7F89410922602109228
S113177027028FBF0895662331F0109234020E942D
S11317804B0B0C947C0883E00E9438098111F5CF3F
S1131790089510922D020E944E0B0C946B08611157
S11317A008C081E00E943809811103C008956623AE
S11317B031F0109240020E94480B0C948C0886E091
S11317C00E9413098111F5CF0895CF939FB7F89420
S11317D080913702811128C081E0809337021092F2
S11317E06E039FBF9FB7F89480917A0080688093BE
S11317F07A009FBFCFB7F89480911602813089F4A4
S113180080913702813021F48BE00E94150109C0D8
S1131810823039F480916E038093160283E08093C2
S11318203702CFBF80E010C080916E03811101C0E8
S11318300AC080916F0380FD05C0816080936F03AF
S113184080E001C085E09FBFCF910895CF93CFB7CB
S1131850F89490912802933061F590910A029813BC
S113186028C080910C028F3FB1F0E82FF0E0E252E3
S1131870FC4F908190930C029F3F11F490930B02C4
S11318809FEF90838093B00390930A0281E080934A
S113189028028DE109C082E080930A021092280296
S11318A081E0809327028FE10E941501CFBF80E081
S11318B002C0CFBF81E0CF910895CF932FB7F894A2
S11318C080913302882351F090911202913019F0E3
S11318D080E090E005C081508230D0F781E090E054
S11318E02FBF892BC1F0CFB7F894809112028130B9
S11318F089F480913302813021F48EE00E94150135
S113190009C0823039F4809157028093120283E037
S113191080933302CFBFCF9108952F923F924F927D
S11319205F927F928F929F92AF92BF92CF92DF92FB
S1131930EF92FF920F931F93CF93DF93EC0180916B
S11319404A0281113CC0809180048530C1F58091A8
S1131950BE03811134C00E94A207882381F18CA5A3
S113196082FF03C06EA56F7001C060E080912F03F9
S1131970681731F060932F03606885E00E942A069F
S11319809A8180E02981822B87749C7C81349848D9
S1131990C1F486E00E9412068F7190E04091EF023C
S11319A02091A70230E0240F311D63E0359527957F
S11319B06A95E1F72817390724F40E94460585E063
S11319C095C069E082E00E942A060E9497011B01EB
S11319D02C017E018FEFE81AF80A18818CA5712E6C
S11319E07A947A9484FF08C0012F05509E012E1921
S11319F03F09020F701A02C0072D712C81E00E946A
S1131A0012068F71893029F066E082E00E942A066E
S1131A10D4CF8FB7F8942F9A80908400909085004B
S1131A208FBF0E94B4000E94CF0080E68EBD812F3C
S1131A300E94C8006701102F1E0DF60181916F01ED
S1131A400E94C8001C11F9CF015010E00F5F1F4F16
S1131A500E0D1F1DF2EA8F0E911C82189308AA2402
S1131A6097FCA094BA2C820C931CA41CB51C772060
S1131A7039F1F8018081C180D12CE12CF12C76015F
S1131A80DD24CC24F82A8381C82A8281D82AD7016C
S1131A90C60188199909AA09BB0983839283A18382
S1131AA0B083512CF801E50DF11D80810E94C8001E
S1131AB053945710F7CFF801C382D282E182F082A7
S1131AC00E94C3000E94B60066E082E00E942A06DB
S1131AD08CA582608CA788A699A6AAA6BBA686E038
S1131AE08093800484E080934A0280E0DF91CF9168
S1131AF01F910F91FF90EF90DF90CF90BF90AF9028
S1131B009F908F907F905F904F903F902F9008957B
S1131B102F923F924F925F926F927F928F929F92F9
S1131B20AF92BF92CF92DF92EF92FF920F931F93E7
S1131B30CF93DF93CDB7DEB729970FB6F894DEBF06
S1131B400FBECDBF15E0D12E04E0C02E82E0A82E3A
S1131B50BB24B39498E0992E20E2822E8091BE0398
S1131B60882309F4D2C080918004813009F4CDC067
S1131B700E94A207882309F4C8C08FB7F894E090A4
S1131B80F002F090F1028FBF1092BE038FE00E942A
S1131B901206182F80914A02833011F0873021F405
S1131BA0D092800490924A0212FF4CC080914A0263
S1131BB0863011F410924A0280914A02811142C087
S1131BC01430B9F586E00E9412068F719091A70235
S1131BD0292F26952695921B980F9093A702E091A2
S1131BE05C02F0915D0294A59B7F986094A786A700
S1131BF00E949701970127503109261B370B442770
S1131C0037FD4095542FA0915C02B0915D029C96E3
S1131C10EC919C97E2609C96EC939C97260F371F5F
S1131C20481F591F98962D933D934D935C939B9712
S1131C3007C0E0915C02F0915D0284A5857F84A7D2
S1131C40D0924A0213FF61C080914A02843009F0A5
S1131C504AC0D092800410924A028091600283307C
S1131C6019F41092600251C0E0918F04F091900435
S1131C707280612C81819301282BC90185FF11C0D9
S1131C8087749C7C8134984861F447814A83198223
S1131C90868129813A81282B81E090E02F3F3F4FB4
S1131CA011F480E090E0882399F08091A0038111E1
S1131CB00FC0A092FB02B092A00380918400909187
S1131CC0850069E973E00E94C001A09260021DC012
S1131CD0109260021092AD021092EF03C092AC0217
S1131CE00E94400112C0853081F486E00E941206F1
S1131CF09091EF02292F26952695921B8F71980FAC
S1131D009093EF0289E080934A0280914A028823EB
S1131D1009F458C2893009F0C4C10E94CF008EBCB6
S1131D200DB407FEFDCF8EB51EBC0DB407FEFDCF6E
S1131D303EB5333008F483C0832F90E08A970CF0CB
S1131D407EC01EBCE0915C02F0915D027F019FEFBA
S1131D50E91AF90A30833250373010F027E001C015
S1131D60232F870119861886422F4E0D80E02F837A
S1131D703D834E830E94C800D8018D938D01682F46
S1131D80888599850E94D100998788874E812F8103
S1131D903D814013EBCF022F015010E00F5F1F4F26
S1131DA00E0D1F1DE0915C02F0915D02B281BC83B7
S1131DB01B8281814B815C81482BCA0187709927E2
S1131DC0029729F4809160028230B9F50BC09FB765
S1131DD0F89481E04091B203433008F080E09FBF63
S1131DE0882359F1F32EF21AF00E0CC00E94C80099
S1131DF0D8018D938D01682F888599850E94D10023
S1131E009987888780E0F012F1CF0E94C800682F7C
S1131E10888599850E94D1008C0180E00E94C800C9
S1131E20682FC8010E94D1008C010E94C300E09178
S1131E305C02F0915D0285A704C00E94C30001E02A
S1131E4010E00E94B600D092800410924A02012B46
S1131E5009F0AFC120915C0230915D023987288777
S1131E60D90112963C901297212C11968C911197BE
S1131E70F101E82BCF018770992720916002029726
S1131E8009F5223009F006C1E0918F04F091900425
S1131E9013969C9183819813FDC080916F008D7F70
S1131EA080936F001092A00384A5816084A7109290
S1131EB060021092AD021092EF03C092AC020E9435
S1131EC04001E8C021111BC0888599850E946606DF
S1131ED08823A9F0D0923103A092320310923303E5
S1131EE0A885B98513968C918093340381E393E09C
S1131EF00E948D0C811103C083E0809360020091E5
S1131F00840010918500888599850E94660688233F
S1131F1011F0045E1C4F10936503009364038091D9
S1131F20840090918500F801E81BF90BCF011E167F
S1131F301F068CF42091AD0221110AC02091A00348
S1131F40211109C00E944206F0E8F093AD0203C0DB
S1131F5020682093AD02A885B98519965C901997DD
S1131F60412C18968C919201282B70916502872F31
S1131F7090E0FC01EE0FFF1FE154FC4F40815181C2
S1131F806091A1034217530761F4FC01E757FB4F2B
S1131F908081861709F449C06F5F6093A103608351
S1131FA01DC0EFEBF3E0A9E8B4E080E090E000E0CE
S1131FB010E0782F419151914217530789F480938F
S1131FC065022091A103FC01E757FB4F8081821732
S1131FD061F1822F8F5F8093A103808310E80CC08E
S1131FE04D91562F541B151710F4082F152F0196D9
S1131FF085309105F1F6ADC18091A103982F9F77AB
S11320009F3719F07091650210C01F37D8F3E9E8C3
S1132010F4E0282F207890819F67981320833196CD
S113202094E0EE38F907B9F7EDCFA885B985139692
S11320308C91E72FF0E0DF01AE56BB4F9C91ED543D
S1132040FC4F90FF04C09081891303C023C09160AA
S11320509C9380831FB7F8948091B2038330C8F4B3
S1132060E091D903E80FE33008F0E350F0E0EE0F1D
S1132070FF1FEF5AFD4FF080018128853985318398
S113208020838F5F8093B20383E20E941501F88658
S113209009871FBF4885598550935D0240935C02B0
S11320A088C0982F9150933008F06EC091509230B0
S11320B0E8F5109180041130B1F48091A0038111EE
S11320C035C00E94B40083E08093FB021093A00308
S11320D080918400909185006BE273E00E94C001BE
S11320E0A09280043EC0833009F51330F9F40E94B5
S11320F0A2078823D9F08FE00E9412068091810004
S113210080648093810086BA80916F00806280939E
S11321106F006091A002606688E00E942A0666E073
S113212082E00E942A06C09280041BC080914A0269
S113213081508230B0F480918004853091F40E9403
S1132140A207882371F063E082E00E942A0680914E
S11321506F008F7D80936F001092BE0383E08093A5
S1132160800480914A02813041F49091800493303C
S113217001F52F9A809380041AC08230D1F48091A3
S113218080048330B1F413C0873099F40E94A2070D
S1132190882379F06091A002606688E00E942A0694
S11321A080918004853019F4C092800402C090921A
S11321B04A0280914A02883029F410924A0281E24C
S11321C00E94150180914A0281111CC080918004F3
S11321D08530C1F48091BE03811114C080916002E6
S11321E0811110C08091AD0281110CC08091A003B7
S11321F0811108C08091AC02823021F4B092AC020B
S11322000E94400180914A02811103C085E20E942C
S113221015018091A003823009F08DC01092A003B3
S11322202091FB02223009F469C0233009F471C003
S1132230213009F080C08091840090918500E09065
S11322406403F0906503E81AF90A8091AD028038BE
S113225051F41092AD028091AC02823009F06BC04F
S11322602093AC0253C087FF03C01E141F04FCF06C
S11322700091A8021091A90280916002811117C0F7
S1132280C8010E948D0C282F811112C0D8019C9680
S11322908C919C978E7F9C968C93B0926002109345
S11322A0900400938F0483E08093AD0244C025E042
S11322B08091AD02982F9F77913059F48078826095
S11322C08093AD0280E198E00E94E5010E944206FD
S11322D032C087FF0CC01E141F044CF4B0E8B09346
S11322E0AD02C7012F830E9442062F8102C01092C3
S11322F0AD022093EF03B092AC0208C010926002CA
S11323001092AD021092EF03C092AC020E94400101
S113231012C080918004823019F42093800409C093
S113232080914A02863029F410924A0281E00E9488
S113233012060E94D9118FB7F89490919C029130A3
S113234021F410929C028FBF1BC0B0929C028FBFDD
S113235005CC00936502802F90E0FC01EE0FFF1F77
S1132360E154FC4F318320836F5F6093A103FC0130
S1132370E757FB4F6083FC01EE56FB4F10823CCEC7
S113238029960FB6F894DEBF0FBECDBFDF91CF9173
S11323901F910F91FF90EF90DF90CF90BF90AF907F
S11323A09F908F907F906F905F904F903F902F9071
S11323B008958FB7F89490919C02992329F090681E
S11323C090939C028FBF089591E090939C028FBFDD
S11323D00C94880D9FB7F89480919C02815080934F
S11323E09C02803811F09FBF089581E080939C0285
S11323F09FBF0C94880D0F931F93CF93DF931F926D
S1132400CDB7DEB78C01809142028F5F8093420288
S1132410F80183830E94BA008091AC0281110DC03F
S11324201093A4030093A30381E08093AC02109261
S1132430A2030E94400180E001C085E089830E94DC
S1132440EA1189810F90DF91CF911F910F91089527
S1132450EF92FF921F93CF93DF9300D0CDB7DEB7F7
S1132460182F7A012D3108F07EC0F701528140E027
S11324708181482BFA01E774FC7CE134F84841F08F
S11324804073552741645868F701418388E8828383
S1132490235FF701208369837A830E948F01F70108
S11324A0808791879FB7F894809107029FBF8483A8
S11324B015821387698166837A8177838FB7F8944D
S11324C090912502911110C092E0909325021092F0
S11324D004028FBF8FE38287C7010E94FB11182F6C
S11324E0882309F441C00CC08FBFF092A402E0928B
S11324F0A302FFB6F8948091250281110FC003C096
S11325000E94790531C081E0809325021092040273
S113251080E20E941501FFBE10E026C080919D025A
S11325208F3F49F481E090E020910502222329F0B5
S113253080E090E002C081E090E0811111C08091C0
S113254006028F3F19F41092060206C0E0910502BC
S1132550F0E0E356FD4F10821092050210E001C036
S113256015E0FFBE01C016E0812F0F900F90DF91A0
S1132570CF911F91FF90EF90089510920002E09187
S11325806603F09167033097B9F08091E80380FD0A
S113259013C080910002811113C020812D507781D6
S11325A060E08681682BAF0183850E94281288230E
S11325B039F089E20C94150181E080930002E9CF9F
S11325C008952091000221110FC0209166033091DB
S11325D067032817390741F41092670310926603C2
S11325E00E94BD120C944E060895CF93209162036D
S11325F0909163032093C9029093C80220916702CB
S1132600909168022093CB029093CA022091B60263
S11326109091B7022093CD029093CC022091B802FE
S11326209091B9022093CF029093CE022091680337
S1132630909169032093D1029093D0022091D40306
S11326409091D5032093D3029093D20220919A02C1
S113265090919B022093D5029093D4028093D70249
S11326601092D60290912102809122029093D90275
S11326708093D8028FEF8093C2028093C302C1E09B
S1132680C093C7028091660390916703892BF9F484
S11326908CEB92E090936703809366038FE18093C1
S11326A0BC0280910002882391F01092000222E182
S11326B04CEB52E06FEF7FEF81E00E9428128823F9
S11326C031F0C09300021092670310926603CF9119
S11326D00895CF93DF931F92CDB7DEB70E94BA005F
S11326E08091AC02811119C080914A02811115C0F8
S11326F080918004813029F48091A00381110DC060
S113270002C0853081F083E080934A020E94D9118F
S113271085E08093AC0280E001C085E089830E945B
S1132720EA11898102C089E0F9CF0F90DF91CF913E
S11327300895CF932FB7F89480912C02882351F0F9
S113274090910E02923019F080E090E005C0815023
S11327508230D0F781E090E02FBF892BC1F0CFB752
S1132760F89480910E02823089F480912C02813099
S113277021F485E10E94150109C0823039F4809169
S1132780490280930E0283E080932C02CFBFCF9145
S11327900895CF93DF931F92CDB7DEB7843039F11C
S11327A038F48230B9F0F8F4813009F061C00AC01D
S11327B0873009F444C0883009F449C0853009F0F1
S11327C057C022C0611106C082E00E945D098111D8
S11327D001C04EC0109240020E94480B0F90DF913E
S11327E0CF910C94A709611104C084E008C066234A
S11327F029F0109234020E944B0B1CC085E00E9409
S11328005D098111F6CF34C01092340269830E94AD
S11328104B0B698161110EC0559A52985A9A539A7A
S11328204CE251E060E070E080E00F90DF91CF91E6
S11328300C94E0040F90DF91CF910C945D0C611126
S11328400EC088E00F90DF91CF910C945D09611167
S113285006C084E00F90DF91CF910C94820910920E
S11328602D020E944E0B0F90DF91CF910C9499137F
S11328700F90DF91CF910895CF93DF931F92CDB73F
S1132880DEB7843079F130F4813051F0833009F0CF
S113289056C017C08630E9F1873009F050C03FC0F8
S11328A0662349F0109229020E940A0A0F90DF91D0
S11328B0CF910C94560482E00E949D088111F2CFBE
S11328C03EC0662349F0109234020E944B0B0F90D5
S11328D0DF91CF910C945D0C83E00E945D0981111E
S11328E0F2CF2DC010922D0269830E944E0B698194
S11328F061110AC04BE050E060E070E082E00F90AC
S1132900DF91CF910C94E0040F90DF91CF910C9460
S11329109913611106C081E00E945D090EC066230F
S113292049F0109240020E94480B0F90DF91CF9122
S11329300C94A70986E00E9482098111F2CF0F90BE
S1132940DF91CF9108954F925F926F927F92BF92E1
S1132950CF92DF92EF92FF920F931F93CF93DF9367
S1132960E0E0F0E049E04E9FE0014F9FD00D1124DC
S1132970C059DC4FB884B1FE93C0488059806A8046
S11329807B800C811D812E813F816B017C01C418E9
S1132990D508E608F708C016D106E206F30608F4DF
S11329A07FC0B0FE04C0E894B1F8B8860AC0D9016B
S11329B0C801840D951DA61DB71D88839983AA831C
S11329C0BB83E230B9F118F4E13031F408C0E330EC
S11329D0A1F1E43009F461C00E945D0C66C04A9B19
S11329E025C0809135028F5F809335028630B0F028
S11329F080913602833039F4109236020E94960494
S1132A0080EE93E008C0823049F4109236020E94AE
S1132A10960480E090E00E94860447C044E150E0C0
S1132A2060E070E081E00E94E0043FC08DE00E941D
S1132A3015013BC00E94991338C080914F029091B8
S1132A40500285309105C9F08E31910519F0039734
S1132A5061F503C01092300228C0109230028091B8
S1132A608304811122C00E9407031092690310920B
S1132A70680381E00E943E0318C0109230028091E6
S1132A808304813091F40E9407031092D5031092BD
S1132A90D40380E00E94660208C00E94560405C068
S1132AA03196E530F10509F05ECF82E1DF91CF91F7
S1132AB01F910F91FF90EF90DF90CF90BF907F9088
S1132AC06F905F904F900C9415013F924F925F92DC
S1132AD06F927F928F929F92AF92BF92CF92DF922A
S1132AE0EF92FF920F931F93CF93DF93E82FF0E0C1
S1132AF0EA32F10510F00C94DB1FEA59FF4F0C94F5
S1132B00A125DFB7F8948091D303C091F0038130FD
S1132B1059F480E00E941F04C0936203109263037F
S1132B2081E00E94460109C081E00E941F04C09315
S1132B306702109268020E940405DFBF0C94DB1F39
S1132B408091D303813009F041C01CC08FB7F89441
S1132B509091B10390931E0293E090933F028FBF34
S1132B6080911E02882329F0813011F00C94DB1F20
S1132B7024C081E08093D3030E94E50B882311F4E1
S1132B800C94DB1F80E00E941F04109263031092D8
S1132B90620381E0DF91CF911F910F91FF90EF903D
S1132BA0DF90CF90BF90AF909F908F907F906F9069
S1132BB05F904F903F900C94460182E08093D30342
S1132BC00E94E50B882311F40C94DB1F81E00E9422
S1132BD01F041092680210926702DF91CF911F9137
S1132BE00F91FF90EF90DF90CF90BF90AF909F90A8
S1132BF08F907F906F905F904F903F900C9404055E
S1132C0081E001C082E08093400280E0DF91CF91B7
S1132C101F910F91FF90EF90DF90CF90BF90AF90F6
S1132C209F908F907F906F905F904F903F900C9407
S1132C3008028FB7F8949091B50290931B0293E029
S1132C4090933C028FBF80911B02813079F140F058
S1132C50823009F451C0833011F00C94DB1F79C029
S1132C60809140028130F1F487E00E948209882338
S1132C7011F40C94DB1F109240020E94480BDF9168
S1132C80CF911F910F91FF90EF90DF90CF90BF9065
S1132C90AF909F908F907F906F905F904F903F90F8
S1132CA00C94A70987E00E941309E1CF80913402B4
S1132CB08130F1F483E00E948209882311F40C949A
S1132CC0DB1F109234020E944B0BDF91CF911F91B6
S1132CD00F91FF90EF90DF90CF90BF90AF909F90B7
S1132CE08F907F906F905F904F903F900C945D0C0D
S1132CF083E00E941309E1CF80912D028130F1F429
S1132D0087E00E945D09882311F40C94DB1F109264
S1132D102D020E944E0BDF91CF911F910F91FF90D6
S1132D20EF90DF90CF90BF90AF909F908F907F9067
S1132D306F905F904F903F900C9499133B980E9432
S1132D40EE000E94EC000E94F40087E00E94380923
S1132D50DACF80912902813059F40E9482098823B4
S1132D6011F40C94DB1F109229020E940A0AD9C0A4
S1132D7081E00E941309F3CF8091EE03882311F4BC
S1132D800C94DB1F1092EE0380914E02882341F1D4
S1132D9010924E028091A5032091F20230E0482F58
S1132DA050E04150510902C0359527954A95E2F704
S1132DB020FF02C060E001C061E0DF91CF911F916C
S1132DC00F91FF90EF90DF90CF90BF90AF909F90C6
S1132DD08F907F906F905F904F903F900C94C913A9
S1132DE08091E903882311F40C94DB1F1092E9030A
S1132DF08091A5032091F20230E0482F50E0415029
S1132E00510902C0359527954A95E2F720FD02C085
S1132E1060E001C061E0DF91CF911F910F91FF90BD
S1132E20EF90DF90CF90BF90AF909F908F907F9066
S1132E306F905F904F903F900C94510B8091EE03F4
S1132E40882311F40C94DB1F1092EE0380914E0240
S1132E50882339F010924E0261E08091A5030E940C
S1132E60C9138091E903882311F40C94DB1F109299
S1132E70E90361E08091A503CECF8FB7F8949091D8
S1132E8093029093180293E090933B028FBF80913A
S1132E9018029FB7F894809317029FBF813089F07E
S1132EA038F0823049F1833011F00C94DB1F4CC0B0
S1132EB0409181045091820422EF32E063E080E08B
S1132EC008C0409147025091480228E834E063E08A
S1132ED081E0DF91CF911F910F91FF90EF90DF90F0
S1132EE0CF90BF90AF909F908F907F906F905F90A6
S1132EF04F903F900C94F00A2DE032E049E350E00B
S1132F0067E082E00E94F00A882311F40C94DB1F2E
S1132F10109229020E940A0A0E94D90582E00E94A6
S1132F20D406DF91CF911F910F91FF90EF90DF9026
S1132F30CF90BF90AF909F908F907F906F905F9055
S1132F404F903F900C9456042FEA32E049E350E04E
S1132F5067E083E00E94F00A882311F40C94DB1FDD
S1132F600E941807DF91CF911F910F91FF90EF906E
S1132F70DF90CF90BF90AF909F908F907F906F9095
S1132F805F904F903F900C9443018091AE02882350
S1132F9011F40C94DB1F1092AE028091410288233D
S1132FA041F1109241028091B8032091880430E0ED
S1132FB0482F50E04150510902C0359527954A9554
S1132FC0E2F720FF02C060E001C061E0DF91CF9131
S1132FD01F910F91FF90EF90DF90CF90BF90AF9033
S1132FE09F908F907F906F905F904F903F900C9444
S1132FF03C1480913003882311F40C94DB1F10924D
S113300030038091B8032091880430E0482F50E0C9
S11330104150510902C0359527954A95E2F720FDA4
S113302002C060E001C061E0DF91CF911F910F9178
S1133030FF90EF90DF90CF90BF90AF909F908F90D4
S11330407F906F905F904F903F900C94970B80917E
S1133050AE02882309F4AFC71092AE0280914102F8
S1133060882339F01092410261E08091B8030E94F4
S11330703C1480913003882309F49DC710923003D7
S113308061E08091B803D0CF8FB7F89490916E032C
S11330909093160293E0909337028FBF80911602AB
S11330A0811189C78091D303CFB7F894813039F463
S11330B0809199028E7F8093990281E006C080916D
S11330C099028E7F8093990282E00E948906CFBF85
S11330D072C780913602813009F0F8C00FB7F894B6
S11330E0C8EAD3E010E00E94A9051F5F00000000B9
S11330F00E94F8000E9418040E94F8000E9418041C
S11331000E94F8000E9418040E94F6000E9418040D
S11331100E94F8000E941804113039F40E94F6004D
S11331200E9418040E94F80011C0123039F40E9461
S1133130F6000E9418040E94F80031C0133049F5CB
S11331400E94F8000E9418040E94F6000E941804CD
S11331500E94F6000E9418040E94F8000E941804BD
S11331600E94F6000E9418040E94F6000E941804AF
S11331700E94F6000E9418040E94F6000E9418049F
S113318000000E94E90589939993143009F0ABCFAC
S11331900FC00E94F8000E9418040E94F6000E94CA
S11331A018040E94F8000E9418040E94F600D6CF6A
S11331B00FBF8091A8039091A903AC015695479540
S11331C060E070E0409395025093960260939702FA
S11331D0709398024091AC035091AD03C090AE033C
S11331E0D090AF03AFE38A2E912C84229522B6E0CF
S11331F0880C991CBA95E1F796012F733327822A1C
S1133200932AA12CB12C8092B1029092B202A09286
S1133210B302B092B402C6E0D694C794CA95E1F75B
S1133220E12CF12CC0922B03D0922C03E0922D03BD
S1133230F0922E03D6E056954795DA95E1F760E0D3
S113324070E04093CF035093D0036093D103709305
S1133250D2032091AA033091AB0381709927982F50
S11332608827990F990FA90106E0569547950A9565
S1133270E1F7842B952BA0E0B0E08093DA039093E0
S1133280DB03A093DC03B093DD03A9014F7355273F
S113329060E070E04093B9035093BA036093BB03BA
S11332A07093BC0323E0880F991FAA1FBB1F2A95A4
S11332B0D1F7915BAF4FBF4F8093F7029093F80221
S11332C0A093F902B093FA0282E002C1CFB7F89456
S11332D00E94A905000000000E94F8000E94180442
S11332E00E94F8000E9418040E94F8000E9418042A
S11332F080913602833079F40E94F8000E94180409
S11333000E94F6000E9418040E94F8000E9418040B
S11333100E94F60010C0823081F40E94F8000E94DE
S113332018040E94F6000E9418040E94F6000E94ED
S113333018040E94F8000E9418040E94F6000E94DB
S113334018040E94F6000E9418040E94F6000E94CD
S113335018040E94F6000E9418040E94F6000E94BD
S113336018041092350244E250E060E070E081E01D
S11333700E94E004ACCECFB7F8940E94E905909384
S1133380A2028093A102CFBFE090A102F090A2021A
S113339080913602823009F0B0C0970140E050E0DD
S11333A08091F7029091F802A091F902B091FA028B
S11333B0281B390B4A0B5B0B2093430230934402C6
S11333C040934502509346028090B9039090BA030B
S11333D0A090BB03B090BC03C501B4016E5C7F4FE9
S11333E08F4F9F4F0E942625EAE095958795779504
S11333F06795EA95D1F7FB01E853FF4FE83CF105E7
S1133400DCF4CF01AA2797FDA095BA2F68ECC62E4D
S1133410D12CE12CF12CC81AD90AEA0AFB0AABE038
S1133420B0E0A50194010E941B259B01AC01285F1B
S11334303E4F4F4F5F4F1FC0E33C41E0F407ACF1F8
S1133440CF01AA2797FDA095BA2F52ECC52EDD24F3
S1133450D394E12CF12CC81AD90AEA0AFB0AA3E096
S1133460B0E0A50194010E941B259B01AC01285BDF
S11334703F4F4F4F5F4FC701B6010E9426259B0166
S1133480AC01C701B6010E94262544E195958795B4
S1133490779567954A95D1F7609384047093850472
S11334A0809386049093870408C010928404109239
S11334B0850410928604109287048091840490916C
S11334C08504E81BF90BF093E103E093E00383E048
S11334D080933602DF91CF911F910F91FF90EF906F
S11334E0DF90CF90BF90AF909F908F907F906F9020
S11334F05F904F903F900C948C01833009F05BC532
S1133500109236020E949604409043025090440266
S1133510609045027090460260912B0370912C03D9
S113352080912D0390912E03A30192010E942625E0
S11335309B01AC011AE055954795379527951A9547
S1133540D1F78091950290919602A0919702B09143
S11335509802280F391F4A1F5B1F305A4F4F5F4F85
S1133560B70180E090E07C51810991090E942625F1
S11335706B017C010EE0F594E794D794C7940A9507
S1133580D1F78090B1029090B202A090B302B090B3
S1133590B40282E0880C991CAA1CBB1C8A95D1F742
S11335A02091CF033091D0034091D1035091D203A5
S11335B0325041095109C301B2010E9426252CE071
S11335C095958795779567952A95D1F7860E971ED9
S11335D0A81EB91EC818D908EA08FB08AAE0B0E07A
S11335E0A70196010E941B2535E09595879577954F
S11335F067953A95D1F79B012C53364F3093E303EB
S11336002093E2038091E0039091E103883C9105CB
S113361044F540918404509185046DEF6403F001F6
S1133620659FF00D1124C901AA2797FDA095BA2F13
S11336308C5A9D40A109B109DEE0B595A7959795EF
S11336408795DA95D1F7E89FA001E99F500DF89F7F
S1133650500D1124420F531F5093E3034093E20390
S113366024C0833C91400CF1C901AA2797FDA09581
S1133670BA2F80519742A109B109CDE0B595A7951C
S113368097958795CA95D1F7E0918404F0918504C4
S1133690E89FA001E99F500DF89F500D1124241BB1
S11336A0350B3093E3032093E20380EE93E0DF9144
S11336B0CF911F910F91FF90EF90DF90CF90BF902B
S11336C0AF909F908F907F906F905F904F903F90BE
S11336D00C9486048FB7F894909157029093120239
S11336E093E0909333028FBF80911202811163C4DF
S11336F09091150280913602992321F081110AC01C
S113370081E003C0811106C082E0809336020E94EA
S11337108C0106C00E94960480E090E00E9486041A
S11337201092150248C481E0809334026FCA82E08B
S11337308093340281E06ACA80919402811141C06D
S11337404091CB035091CC036091CD037091CE0393
S11337502FB7F8948091EA039091EB03A091EC03C6
S1133760B091ED03C0905802D0905902E0905A02F3
S1133770F0905B028C0D9D1DAE1DBF1D2FBF4093AD
S1133780CB035093CC036093CD037093CE0310927C
S113379094022FB7F89431E03093B002809358022A
S11337A090935902A0935A02B0935B024093EA03A8
S11337B05093EB036093EC037093ED032FBF0E94CF
S11337C084030E94AC0242C00E94AC022FB7F8945A
S11337D01092B0022FBFC0E044244A94542C642CAD
S11337E0BFE77B2E20E030E0D9E0D29FF001D39FE9
S11337F0F00D1124E059FC4F408541FF1AC0C080F0
S1133800D180E280F3804B015C018C189D08AE08E6
S1133810BF08C480D580E680F780C818D908EA08B4
S1133820FB08C414D504E604F7041CF4260137018C
S1133830C1E02F5F3F4F25303105B9F6CC2309F4A1
S1133840BAC314141504160417049CF0DF91CF9125
S11338501F910F91FF90EF90DF90CF90BF90AF90AA
S11338609F908F907F906F905F904F903F900C94BB
S1133870A3144092CB035092CC036092CD03709278
S1133880CE0321E0209394023FB7F8942093B00232
S1133890609358027093590280935A0290935B028A
S11338A04092EA035092EB036092EC037092ED03B2
S11338B03FBFDF91CF911F910F91FF90EF90DF9069
S11338C0CF90BF90AF909F908F907F906F905F90BC
S11338D04F903F900C94840380913002882309F424
S11338E06AC3809193038D7F809393030E94E702C0
S11338F0D82FF0E0CF2F0E94E702C82B0E94E702E6
S11339000E94F2000E94EA000E94F0000E94EE0071
S113391080914F02909150028330910521F00597D8
S113392009F049C30DC010923002809183048111C3
S113393042C30E940703D0936903C09368033DC048
S11339401092300280918304813009F034C30E94C4
S11339500703D093D503C093D40363C080914F026F
S1133960909150028630910531F0079709F023C3F6
S11339701092300220C31092300210922E021BC308
S11339808FB7F8949091490290930E0293E090932C
S11339902C028FBF20910E02222321F0213009F046
S11339A00AC334C08091110281111BC080E00E94BF
S11339B00703109269031092680381E0DF91CF91AD
S11339C01F910F91FF90EF90DF90CF90BF90AF9039
S11339D09F908F907F906F905F904F903F900C944A
S11339E03E03809130028111E1CF81E08093300267
S11339F083E090E09093500280934F0210928304EE
S1133A000E94CA07882309F4D6C2D0CF809111023C
S1133A1081111BC081E00E9407031092D50310920C
S1133A20D40380E0DF91CF911F910F91FF90EF902D
S1133A30DF90CF90BF90AF909F908F907F906F90CA
S1133A405F904F903F900C946602809130028111F8
S1133A50E1CF2093300285E090E090935002809370
S1133A604F02209383040E94CA07882309F4A3C247
S1133A70D1CF81E080932D0282E0C8C882E0809398
S1133A802D02C4C88FB7F89490911702933009F0AF
S1133A9033C08FBF8FB7F89420913A02213061F57B
S1133AA092E090933A028FBF3FB7F89489E390E095
S1133AB09093BB028093BA028AEC93E090939F02A6
S1133AC080939E0220934D0287E08093910410928C
S1133AD0C903209339023FBF0E945E02CFB7F89416
S1133AE080919F038F7A816A80939F0384E08093FF
S1133AF03A020E94E500EBCA8FBF32CA9091AF022E
S1133B008091CA03C82FCF77933429F480E00E94B0
S1133B10260C8C2F0DC081E00E94260C8C2F1FC018
S1133B208091AF028334B9F480E00E94260C80E0D7
S1133B30DF91CF911F910F91FF90EF90DF90CF9085
S1133B40BF90AF909F908F907F906F905F904F90B9
S1133B503F900C94590681E00E94260C80E0DF918E
S1133B60CF911F910F91FF90EF90DF90CF90BF9076
S1133B70AF909F908F907F906F905F904F903F9009
S1133B800C94F51248EE53E060E070E084E0DF91BD
S1133B90CF911F910F91FF90EF90DF90CF90BF9046
S1133BA0AF909F908F907F906F905F904F903F90D9
S1133BB00C94E0048FB7F8949091B00390930A02A8
S1133BC093E0909328028FBF80910A02882321F00A
S1133BD0813009F0F0C10AC083E48093AF0283E02E
S1133BE00E949D08882309F4E6C19ECF83E8809350
S1133BF0AF0283E00E949D08882309F4DCC1ABCFA7
S1133C0081E001C082E08093290283E00C940616CF
S1133C108FB7F89492E0909325028FBF80910402AD
S1133C208111C9C18091A3029091A4022FE3FC01E8
S1133C3022870E94FB11882309F4BDC10E947905E3
S1133C408091A3029091A4025AC08091AC02109278
S1133C50AC02853029F480E00E9446011298ABC181
S1133C60863009F4A8C1873009F4A5C18093AC0259
S1133C70A2C10E94BA002091AC02213069F5809162
S1133C80A2038F5F8093A203863030F58091A30353
S1133C909091A4033091AD02311112C03091A00370
S1133CA031110EC09093A9028093A8022093AD0213
S1133CB08BED91E10E94E5010E94420680E001C083
S1133CC085E08093EF03811102C083E001C082E0AC
S1133CD08093AC02C0E003C01092AC02C1E00E9429
S1133CE0EA11CC2309F467C1C091A303D091A403C2
S1133CF08A858F3309F05FC10E947905CE01DF9177
S1133D00CF911F910F91FF90EF90DF90CF90BF90D4
S1133D10AF909F908F907F906F905F904F903F9067
S1133D200C94E1128FB7F8949091B203911101C0F1
S1133D3091C0E091D903F0E0EE0FFF1FEF5AFD4F61
S1133D40C081D1818FBF8A858F3319F40E948F017E
S1133D5010C0FF80E12C8E816701C82A0E948F0168
S1133D60C816D90619F0CD20C09419F48FB7F89469
S1133D708FBF9FB7F8948091D903E82FF0E0EE0F3E
S1133D80FF1FEF5AFD4FD183C0838F5F833018F438
S1133D908093D90302C01092D9038091B203815059
S1133DA08093B2039FBFBECF3FB6F8948091EB02DD
S1133DB09091EC02A091ED02B091EE024EE4A42E9B
S1133DC053E8B52EC12CD12CE12CF12C00E010E0ED
S1133DD09C01AD0160E070E080E090E00E944A2523
S1133DE029013A0100E20E94A72549015A01D301A1
S1133DF0C201B695A79597958795880D991DAA1D1B
S1133E00BB1DB7FF04C0BF770196A11DB11D8093F0
S1133E10EB029093EC02A093ED02B093EE023FBE4E
S1133E202FB7F8949093A7038093A6032FBFC3C022
S1133E308FB7F89410929E0310929D0310927F0402
S1133E4010927E0410924C0210924B021092610365
S1133E50109260038FBFAFC0CFB7F89482E0809315
S1133E6024020E94BB05CFBF809101028111A3C02F
S1133E700E94B8000E94B60080918004811149C05C
S1133E80CEEFD1E0CE01019701960197E1F71698A4
S1133E900E94B40086E090E0019701960197E1F753
S1133EA0169A60E083E00E942A0668E082E00E949D
S1133EB02A06219721962197E1F76DE48EE00E946E
S1133EC02A0667EC89E00E942A0660E885E00E94E1
S1133ED02A0610922F038BE08093A0026BE688E001
S1133EE00E942A062F9A81E080938004DF91CF916B
S1133EF01F910F91FF90EF90DF90CF90BF90AF9004
S1133F009F908F907F906F905F904F903F900C9414
S1133F104605DF91CF911F910F91FF90EF90DF90B5
S1133F20CF90BF90AF909F908F907F906F905F9055
S1133F304F903F900C94D9118091E8038823D9F1D4
S1133F40C6E6D3E010E001E09091E803802F8923D6
S1133F5059F019821882802F809589238093E80371
S1133F60111102C00E944E06000F1F5F22961830E6
S1133F7059F721C0C0910002EC2FF0E0EE0FFF1FB3
S1133F80EA59FC4F118210820E94BD12C11113C064
S1133F90DF91CF911F910F91FF90EF90DF90CF9021
S1133FA0BF90AF909F908F907F906F905F904F9055
S1133FB03F900C944E06DF91CF911F910F91FF908B
S1133FC0EF90DF90CF90BF90AF909F908F907F90B5
S1133FD06F905F904F903F9008958FB7F894089535
S1133FE08FBF08951F920F920FB60F9211240BB634
S1133FF00F922F933F934F935F936F937F938F937E
S11340009F93AF93BF93EF93FF930E945E028091BF
S11340103A02843039F1863021F0833009F04EC001
S113402016C08091B900887F90913902913049F48B
S1134030803429F483E080933A0281E00DC084E067
S113404026C08831E1F783E080933A0208C080916A
S11340503902813021F480E00E941D072FC00E94A4
S1134060B00A2CC0809191048E7F8093910480913A
S11340709F038F7D80939F039091B900987F983020
S113408049F09091B900987F903121F081E00E942D
S11340906D0A14C0806480939F0391E0809139027B
S11340A0813009F090E08091BA02880F892B8093C7
S11340B0BB0086E080933A020E94E500FF91EF91F5
S11340C0BF91AF919F918F917F916F915F914F912C
S11340D03F912F910F900BBE0F900FBE0F901F902A
S11340E018951F920F920FB60F9211240F900FBEC6
S11340F00F901F9018951F920F920FB60F921124D4
S11341000F900FBE0F901F9018951F920F920FB62D
S11341100F9211240F900FBE0F901F9018951F92AD
S11341200F920FB60F9211240F900FBE0F901F9095
S113413018951F920F920FB60F9211240F900FBE75
S11341400F901F9018951F920F920FB60F92112483
S11341500F900FBE0F901F9018951F920F920FB6DD
S11341600F9211240F900FBE0F901F9018951F925D
S11341700F920FB60F9211240BB60F922F933F9309
S11341804F935F936F937F938F939F93AF93BF935B
S1134190EF93FF93EF9883E10E941501FF91EF9154
S11341A0BF91AF919F918F917F916F915F914F914B
S11341B03F912F910F900BBE0F900FBE0F901F9049
S11341C018951F920F920FB60F9211240BB60F92EF
S11341D0EF92FF920F931F932F933F934F935F930D
S11341E06F937F938F939F93AF93BF93CF93DF93FB
S11341F0EF93FF93C0917800D091790078949FB7A2
S1134200F8948091990281FB002700F981709FBF87
S113421081115FC080917A00877F80937A001FB7F5
S1134220F89480913702833009F045C080911602DA
S1134230811141C080916F0381116AC081E0809334
S113424016021092370280917A008F7780937A0059
S113425032C08130910511F480E090E0A82FE82F5E
S1134260E695E695E695F0E0E159FC4FB081AC01A6
S1134270477055277B0102C0EE0CFF1C4A95E2F7FC
S1134280A701FB2EF42231F040954B234083809309
S1134290380206C08217930711F00196DACFAFEF08
S11342A0A0936E038FEF8093160281E08093370210
S11342B08BE00E9415011FBF002339F08FB7F894DB
S11342C0C093F0038FBF80E001C081E00E9415011C
S11342D027C08FB7F8948FBF2FB7F89480917A00D6
S11342E086FB992790F9877F806190FB86F98F7709
S11342F080937A00877F80618F7B8F7780937A00A9
S1134300877F80618F7B806880937A002FBF08C08D
S11343102091380230E0C901019661E070E099CF44
S1134320FF91EF91DF91CF91BF91AF919F918F91C9
S11343307F916F915F914F913F912F911F910F91B9
S1134340FF90EF900F900BBE0F900FBE0F901F9039
S113435018951F920F920FB60F9211240BB60F925D
S11343602F933F934F935F936F937F938F939F9379
S1134370AF93BF93EF93FF930E940C012091B3007E
S113438030E02F5F3F4F8091610290916202A091D3
S11343906302B0916402820F931FA11DB11D80932B
S11343A0610290936202A0936302B09364027894D2
S11343B00E948403FF91EF91BF91AF919F918F91E0
S11343C07F916F915F914F913F912F910F900BBE11
S11343D00F900FBE0F901F9018951F920F920FB65B
S11343E00F9211240BB60F922F933F934F935F9329
S11343F06F937F938F939F93AF93BF93EF93FF93A9
S11344000E940C01FF91EF91BF91AF919F918F9109
S11344107F916F915F914F913F912F910F900BBEC0
S11344200F900FBE0F901F9018951F920F920FB60A
S11344300F9211240BB60F922F933F934F935F93D8
S11344406F937F938F939F93AF93BF93EF93FF9358
S11344502EB580919D0390919E03009739F0E091D1
S11344606003F0916103E80FF91F2083409160031A
S113447050916103CA010196909361038093600394
S11344802CB52F772CBD60914B0270914C0286178E
S1134490970708F03FC020917E0430917F04E0919B
S11344A09D03F0919E03455F5F4F64177507D8F431
S11344B0AB0119C02115310549F0D901A80FB91F65
S11344C06C916EBD0DB407FEFDCF04C01EBC0DB4CF
S11344D007FEFDCF6EB5309721F0DF01A80FB91F9D
S11344E06C93019602C0415051098417950710F34B
S11344F04CB540684CBD2115310531F0F901E80F88
S1134500F91F20812EBD01C01EBC909361038093CE
S1134510600311C010929E0310929D0310927F04B9
S113452010927E0410924C0210924B02109261037E
S1134530109260038EB5FF91EF91BF91AF919F915F
S11345408F917F916F915F914F913F912F910F9038
S11345500BBE0F900FBE0F901F90189578941F926A
S11345600F920FB60F9211240BB60F922F933F9315
S11345704F935F936F937F938F939F93AF93BF9367
S1134580EF93FF9380916F008D7F80936F007894F9
S11345908FB7F8949091A003913019F492E090931E
S11345A0A0038FBF0E94D911FF91EF91BF91AF91EA
S11345B09F918F917F916F915F914F913F912F9137
S11345C00F900BBE0F900FBE0F901F90189578940C
S11345D01F920F920FB60F9211240F900FBE0F90DF
S11345E01F90189578941F920F920FB60F92112472
S11345F00F900FBE0F901F90189578941F920F92F2
S11346000FB60F9211240BB60F922F933F934F9333
S11346105F936F937F938F939F93AF93BF93EF9326
S1134620FF93E6E8F0E080819181808191812FB74A
S1134630F8949093F1028093F00281E08093BE039A
S11346402FBF0E94D911FF91EF91BF91AF919F911C
S11346508F917F916F915F914F913F912F910F9027
S11346600BBE0F900FBE0F901F90189578941F9259
S11346700F920FB60F9211242F938F939F93AF93A2
S1134680BF932FB7F89480916A0390916B03A09124
S11346906C03B0916D030196A11DB11D80936A0353
S11346A090936B03A0936C03B0936D032FBFBF91E2
S11346B0AF919F918F912F910F900FBE0F901F90EC
S11346C01895CFB7F89414BE88E10FB6F894809388
S11346D06000109260000FBE4AE250E06FEF70E09D
S11346E089E692E00E94C2258FEF8093D6038093DF
S11346F08E0456985E9854985C9880916F008F7DD4
S113470080936F000E94B8000E94B600279A0E940E
S1134710B4000E9A169A8CEF92E090935D02809307
S11347205C021092EF028AE58093A70281E08093F5
S1134730810080E28093B60083E08093B100809191
S11347408400909185004AE720918400309185008F
S11347502817390708F44150C9014111F5CF809158
S1134760B2009091B2009817E1F320918400309147
S113477085008091B2009091B2009817E1F3809186
S11347808400909185004096821B930B35E09695AA
S113479087953A95E1F79093D8038093D7031092C5
S11347A0B100109281001092B6001092B2001092E3
S11347B08500109284008FEF87BB86BB8091B60082
S11347C08571E1F70A9A099A089A129A119A109A2D
S11347D018B88FEF87B90C9814981092850010922E
S11347E0840080916F00816080936F0080918100CC
S11347F0887F82608093810080E0877F8F7E8F7DB9
S11348008F7B8F7780937A000E94FA00D82F8F3F96
S113481009F4BBC00E946515F7CF8091B60081FDF5
S1134820FCCF82E08093B0008091B60080FDFCCF85
S113483083E08093B1008091B60083FDFCCF86EEC7
S11348408093B300809170008260809370000E9416
S113485084038FEF8093AA0210926F0388E490E0A0
S11348609093480280934702109288041092AE02FB
S113487010924102109230038FEF9FEFDC0180937E
S1134880E4039093E503A093E603B093E70329E4DC
S113489030E030938204209381041092F20210924B
S11348A0EE0310924E021092E9038093F302909368
S11348B0F402A093F502B093F6028FEF9FEF90936A
S11348C0A6028093A5020E94FA008F3F09F4AEC0AD
S11348D00E946515F8CFCFB7F8944EC08091700050
S11348E0837099F08091B6008A71E1F78091B300EA
S11348F09091B200891B8C3010F492E007C0809133
S1134900B200853FD0F793E001C095E080916E003E
S11349108670E9F480916F008E72C9F48091710001
S11349208E72A9F40CB407FC12C08091C100887186
S113493071F48091C900887151F48091BC0082FDAA
S113494006C080917A0087FF04C0E1E003C0E0E084
S113495001C0E5E083B79E1708F4E92FF0E0E05EBC
S1134960FE4FE491807F81608E2B83BF789488957D
S1134970F89483B78E7F83BF0E94FA008F3F09F4B7
S1134980ADCFCFBF0E946515A6CF809366020E946B
S11349906A07E0912102F0912202AF014F5F5F4F5D
S11349A060E070E04093EB025093EC026093ED0200
S11349B07093EE0221EF33E03093520220935102C0
S11349C020E234E030935402209353022FE434E085
S11349D030935602209355022FEF3FEF3093C003DC
S11349E02093BF033093C2032093C1033093C403C5
S11349F02093C3033093C6032093C5033093C803A5
S1134A002093C703E295E07FE0934202D0939D0296
S1134A103093DF032093DE0330935F0220935E0222
S1134A208091B60080628093B600F7CECFBF7894B1
S1134A300E94691350CF0E94B625A59F900DB49F84
S1134A40900DA49F800D911D11240895DB018F9377
S1134A509F930E941B25BF91AF91A29F800D911D32
S1134A60A39F900DB29F900D11240895AA1BBB1B08
S1134A7051E107C0AA1FBB1FA617B70710F0A61B5A
S1134A80B70B881F991F5A95A9F780959095BC017B
S1134A90CD010895DF93CF931F930F939A9DF02D2B
S1134AA0219FF00D8B9DF00D8A9DE02DF10D039F4C
S1134AB0F00D029FE00DF11D4E9DE00DF11D5E9D78
S1134AC0F00D4F9DF00D7F936F93BF92AF925F9364
S1134AD04F93D5010E94B6258B01AC01D7010E94EA
S1134AE0B625EB01E80FF91FD60122D02F913F9193
S1134AF0D6010E94B625C60FD71FE81FF91FAF9134
S1134B00BF9116D02F913F910E94B625C60FD71F93
S1134B10E81FF91FD6010E94B625E60FF71F98017A
S1134B20BE01CF0111240F911F91CF91DF91089500
S1134B300E94B625460F571FC81FD91F08F4319687
S1134B400895EE0FFF1F0590F491E02D09940F9343
S1134B500F7351F096958795779567955795479577
S1134B60379527950A95B1F70F910895A29FB00143
S1134B70B39FC001A39F01D0B29F700D811D11246A
S1134B80911D0895DC0101C06D9341505040E0F740
S1094B900895F894FFCF24
S1134B9601FFFFFFFFFFFF22010002FFFF0302FFE9
S1134BA6FF0101FFFF0101FF04FFFF04FFFF02FFF6
S1074BB6FF010000F7
S9030000FC
