S01700006275696C642F697269732F6D61696E2E7372656343
S11300000C947C010C949B010C949B010C949B011B
S11300100C949B010C949B010C949B010C949B01EC
S11300200C949B010C949B010C949B010C949B01DC
S11300300C949B010C947E110C949B010C94C211A2
S11300400C94D2120C9483120C94BC120C94C7120C
S11300500C940B130C949B010C949B010C949B012A
S11300600C94EA110C9436130C949B010C94A41375
S11300700C949B010C949B010C949B010C94F31421
S11300800C94D2140C94DD140C94E8140C940615FE
S11300900C94B6140C949B010C94C7140C949B01FF
S11300A00C949B010C949B010C949B010C949B015C
S11300B00C949B010C949B010C949B010C949B014C
S11300C00C949B010C949B010C949B014608D3084F
S11300D084099B0DBB0DCB0D220E6F0EC20E0B0FB0
S11300E0700F120F250F890F66108D108F109A1044
S11300F0EC1000020E060C040000211042206330B4
S11301008440A550C660E770088129914AA16BB16B
S11301108CC1ADD1CEE1EFF1311210027332522213
S1130120B5529442F772D662399318837BB35AA3BB
S1130130BDD39CC3FFF3DEE36224433420040114E3
S1130140E664C774A44485546AA54BB5288509950B
S1130150EEE5CFF5ACC58DD55336722611163006B3
S1130160D776F6669556B4465BB77AA7199738875B
S1130170DFF7FEE79DD7BCC7C448E5588668A77873
S11301804008611802282338CCC9EDD98EE9AFF9AB
S1130190488969990AA92BB9F55AD44AB77A966A53
S11301A0711A500A333A122AFDDBDCCBBFFB9EEBFB
S11301B0799B588B3BBB1AABA66C877CE44CC55C23
S11301C0222C033C600C411CAEED8FFDECCDCDDD4B
S11301D02AAD0BBD688D499D977EB66ED55EF44EF3
S11301E0133E322E511E700E9FFFBEEFDDDFFCCF9B
S11301F01BBF3AAF599F788F8891A981CAB1EBA1EF
S11302000CD12DC14EF16FE18010A100C230E3206A
S11302100450254046706760B9839893FBA3DAB312
S11302203DC31CD37FE35EF3B1029012F322D232BA
S11302303542145277625672EAB5CBA5A8958985E2
S11302406EF54FE52CD50DC5E234C324A01481040A
S11302506674476424540544DBA7FAB79987B897B2
S11302605FE77EF71DC73CD7D326F2369106B0165A
S113027057667676154634564CD96DC90EF92FE972
S1130280C899E9898AB9ABA94458654806782768AA
S1130290C018E1088238A3287DCB5CDB3FEB1EFB52
S11302A0F98BD89BBBAB9ABB754A545A376A167AFA
S11302B0F10AD01AB32A923A2EFD0FED6CDD4DCD22
S11302C0AABD8BADE89DC98D267C076C645C454C4A
S11302D0A23C832CE01CC10C1FEF3EFF5DCF7CDFF2
S11302E09BAFBABFD98FF89F176E367E554E745E9A
S11302F0932EB23ED10EF01E11241FBECFEFD1E2D9
S1130300DEBFCDBF12E0A0E0B2E0ECE3F0E300E03A
S11303100BBF02C007900D92A231B107D9F718E0C4
S1130320A2E1B2E001C01D92A13CB107E1F70E9435
S113033023150C941C180C9400002F980895289AE7
S11303400895209A08950DB407FEFDCF8EB5089543
S1130350982F0DB407FEFDCF8EB59EBD0895289845
S113036008959C012627022E2295207F2025032E06
S1130370322F22952F700226269532272327220F0B
S1130380220F220F2025C90108951092F907109217
S1130390F80784E0809377021092890310920C0886
S11303A010927B0210921903109218030895809101
S11303B011088F3F69F0E82FF0E0EF5BFD4F90816B
S11303C0909311089F3F11F49093B4089FEF90838A
S11303D008958091B0008093B0008091B60081FDB3
S11303E0FCCF08959FB7F89482B121E0822782B9A7
S11303F09FBF08959FB7F894E82FF0E0EF5BFD4F9F
S113040020812F3F49F421E030E04091B40848179F
S113041029F020E030E002C021E030E0211110C0DA
S1130420209111082F3F19F48093110806C0E09120
S1130430B408F0E0EF5BFD4F80838093B40803C001
S113044085E09FBF089580E0FCCF82E00C94FA0120
S113045085E00C94FA01209126022F5F2093260256
S1130460FC0123832091750221110DC09093840314
S11304708093830381E080937502109280030E942D
S1130480280280E0089585E00895809182038A30EF
S113049021F480917702843021F081E0809323025B
S11304A008958FE00E94FA01109223020895CF93D9
S11304B0CFB7F8948091AE08811108C08DE00E94F6
S11304C0FA01811103C081E08093AE08CFBFCF91C0
S11304D008950F931F938FB7F8949091B2000091F1
S11304E03C0210913D0220913E0230913F02B99BA3
S11304F00CC04091B3009091B2000F5F1F4F2F4F7B
S11305003F4F040F111D211D311D090F111D211D08
S1130510311D8FBFB801C9011F910F910895EFB725
S1130520F89420918400309185002D5F3F4FA901FC
S1130530481B590B4617570718F49B01280F391FFE
S11305402115310511F421E030E0215031093093B7
S113055089002093880082E086BB80916F008260CE
S113056080936F00EFBF08950F931F93CF93DF9392
S11305708C012FB7F894C0918603D0918703CE01E4
S11305808F5E9E4F90938703809386032FBF87E0EF
S11305900E94FA01CE01B8010E9453179C012A5D02
S11305A03E4FC901DF91CF911F910F9108952FB74D
S11305B0F89480910E0290910F022FBF08950F932B
S11305C01F934FB7F89400911403109115032091D1
S11305D01603309117038091840090918500B09B9D
S11305E008C00F5F1F4F2F4F3F4F809184009091A1
S11305F085004FBF980111270027A0E0B0E0082B29
S1130600192B2A2B3B2BB801C9011F910F91089577
S1130610E8EFF0E06927660FF11DE60FF11DC895BC
S1130620382F202D3196C8953025C9010895909111
S11306301702911131C081112FC041E0409317027C
S1130640809106028093160230912202832F8170DA
S113065080933A02809100029091010290931502D6
S1130660809314028091210280931302232F21701E
S11306702427367EE22FF0E0EE0FFF1FEE5FFD4FE2
S1130680808191819093010280930002322B3093F8
S1130690220282E10C94FA018091220280FF02C0BE
S11306A08B7F01C08D7F809322020895CF93DF93C7
S11306B0D82FC62F80917702813069F030F08230D4
S11306C0A1F1833009F001C140C0DD2309F426C142
S11306D00E94C50111C1D11121C160930C08862F5C
S11306E08454823008F0F1C00BC182E001C083E081
S11306F0809377028091220280FF03C082FDE5C0CF
S113070003C081FDE2C002C0846001C082608093A6
S1130710220280912202877E8860809322021092B6
S113072021028FEF80930602F9C0D111CEC06093ED
S11307307B0280911803909119030E9408039093FF
S113074019038093180383E0D8C0809189038F3FF5
S113075009F4BBC0DD2309F453C0823008F4B5C0EA
S1130760E091F807EE2311F0E15001C0E2E0AE2F72
S1130770B0E0A850B84F12963C9120E0EE2311F05F
S1130780E15001C0E2E0F0E0E850F84F8281282B0C
S113079040911803509119032417350709F095C0A7
S11307A080E00E94170380910C088434E1F42091C6
S11307B07B02E0910803309109038E2F8F5F86300E
S11307C010F4982F01C090E0931769F0F0E0E85F0F
S11307D0FC4F2283863018F48093080302C01092E1
S11307E008030E9457020E94C501809112028D7F66
S11307F08093120280912302882309F48FC073C06E
S1130800823008F44DC0E091F907F0E0E850F84F69
S1130810228130912202932F969596959695937006
S1130820892F90E08130910519F0029701F50FC0EE
S1130830832F877E806180932202222311F080E03F
S113084001C085E0809321022093060210C08091AC
S113085021028F3260F4E0910002F0910102E80F6E
S1130860F11D2083809121028F5F8093210280916A
S1130870F907E82FF0E0E850F84F62818F5F83308A
S113088018F48093F90702C01092F90780911803B5
S1130890909119030E9408039093190380931803FD
S11308A08091F807E82FF0E0E850F84FC2838F5F9B
S11308B0833018F48093F80702C01092F8078091EF
S11308C089038F5F8093890329C00E94C5018091A9
S11308D012028D7F8093120281E00E94170380919F
S11308E02302882339F084E080937702DF91CF914B
S11308F00C944502DD2391F081E0809377020EC0D1
S113090080911803909119030E940803909319038E
S113091080931803C43409F0EACEE7CEDF91CF9177
S11309200895FF920F931F93CF93DF9300D0CDB719
S1130930DEB71FB7F89420918202211125C02091BF
S1130940330230E0F901EE0FFF1FE75AFD4FF0804C
S1130950018180839183C90101966CE070E00E945B
S113096067178093330290918503981303C081E045
S1130970809382028091160881110EC00E94FA01B0
S113098081E08093160808C089839A830E94F2014B
S11309908981F82E9A81092F1FBF8F2D902F0F90D8
S11309A00F90DF91CF911F910F91FF900895CF93F6
S11309B0CFB7F89480912502823029F580910A02FC
S11309C0811121C080910C028F3FB1F0E82FF0E03B
S11309D0EF58FD4F908190930C029F3F11F4909338
S11309E00B029FEF908380930A0281E0809325029B
S11309F083E00E94FA0104C080930A021092250247
S1130A00CFBF80E002C0CFBF81E0CF910895809135
S1130A108A0290918B02892B79F581E090E0909382
S1130A2001088093000824E532E030938B02209380
S1130A308A02109279021092780221E020937A02BD
S1130A402091C00020642093C0002091C100206444
S1130A502093C100209154029093790280937802EC
S1130A609FB7F8942093C6008091C000806480935F
S1130A70C0009FBF80E0089585E008959FB7F89473
S1130A80809112028E7F809312028EE7809354022B
S1130A909FBF0C940705982F9D57923050F4909166
S1130AA0120291609093120290E298279093880327
S1130AB08DE7809354020C9407058CB58F7B8CBD15
S1130AC0229A2398219A0E94A1018CB580618CBD41
S1130AD08CB58F778CBD8CB5877F8CBD8CB58B7FA7
S1130AE08CBD8CB580648CBD8DB581608DBD8CB59D
S1130AF08C7F8CBD0895CF93CFB7F8948091240256
S1130B00823041F580910702811124C0809109024D
S1130B108F3FB1F0E82FF0E0E857FD4F90819093BC
S1130B2009029F3F11F4909308029FEF90838093F2
S1130B30070281E0809324028CE00E94FA0104C041
S1130B4080930702109224028CB58F7B8CBDCFBF9B
S1130B5080E002C0CFBF81E0CF910895CF93DF93AF
S1130B601F92CDB7DEB789830E94AF018981806867
S1130B708EBD80E00E94A8010E94A30189830E9487
S1130B809F0189810F90DF91CF9108951F93CF9397
S1130B90DF931F92CDB7DEB7182F69830E94AF0190
S1130BA0912F906C9EBD89810E94A8010E94A3018F
S1130BB00F90DF91CF911F910C949F01BC0181E0B4
S1130BC080938C0280937E038091840090918500B1
S1130BD00C948F02662319F00E94F2011EC05FB7C5
S1130BE0F8944091C008E42FF0E0EE0FFF1FE051AD
S1130BF0FD4F208131818217930771F4842F8F5F19
S1130C008C3018F48093C00802C01092C008809100
S1130C1032028111109232025FBF81E00C94FA011A
S1130C20CF93DF93FC01928180E02181822B85FFA9
S1130C3015C087749C7C8134984881F4978180E046
S1130C402681EC01C22B0E94D70221E030E0C817B4
S1130C50D90711F020E030E0C90102C080E090E043
S1130C60DF91CF910895CF92DF92EF92FF920F938D
S1130C701F93CF93CFB7F8942091B3009091B20013
S1130C8087B3291711F081FF02C0CFBF78C08091CC
S1130C907C02811102C086EE3AC00E946902009172
S1130CA03402109135022091360230913702C090FF
S1130CB01708D0901808E0901908F0901A08601BE3
S1130CC0710B820B930B6C157D058E059F0528F027
S1130CD010927C0286EE31E01BC0D701C601800F62
S1130CE0911FA21FB31F40913C0250913D0260919D
S1130CF03E0270913F02841B950BA60BB70B873EF7
S1130D009105A105B10538F6823008F482E030E09F
S1130D10282F21509091B60093FDFCCF9091B20002
S1130D20291301C0282F80913C0290913D02A0918B
S1130D303E02B0913F02AC01BD014F5F5F4F6F4F68
S1130D407F4F420F511D611D711D481759076A07D6
S1130D507B0710F4282F20958091B60083FDFCCFEB
S1130D602093B300CFBF332351F088E0CF911F917C
S1130D700F91FF90EF90DF90CF900C94FA01CF91F8
S1130D801F910F91FF90EF90DF90CF900895CF9334
S1130D90CFB7F8948091240281110BC081E0809335
S1130DA02402109207028CE00E94FA01CFBF80E077
S1130DB024C0809188028F3F49F481E090E0209123
S1130DC00802222329F080E090E002C081E090E054
S1130DD0811111C0809109028F3F19F41092090208
S1130DE006C0E0910802F0E0E857FD4F108210922F
S1130DF0080280E001C085E0CFBFCF910895CF9372
S1130E008FB7F89490910702911106C09091240233
S1130E10923011F48FBF13C08FBFCFB7F894809175
S1130E20240281110EC082E08093240210920702F2
S1130E300E945D05CFBF0E94A1010E949F0181E035
S1130E4004C0CFBF0E94C70680E0CF9108952F92BF
S1130E503F924F925F927F928F929F92AF92BF92F6
S1130E60CF92DF92EF92FF920F931F93CF93DF9372
S1130E70EC018091270281113CC08091AB08853040
S1130E80C1F58091FD07811134C00E94FF068823BB
S1130E9081F18CA582FF03C06EA56F7001C060E074
S1130EA08091C002681731F06093C002606885E0E9
S1130EB00E94C6059A8180E02981822B87749C7CDC
S1130EC081349848C1F486E00E94AE058F7190E0A9
S1130ED0409181022091720230E0240F311DB3E071
S1130EE035952795BA95E1F72817390724F40E9418
S1130EF07B0585E095C069E082E00E94C6050E94FA
S1130F00DF021B012C017E018FEFE81AF80A188119
S1130F108CA5712E7A947A9484FF08C0012F055011
S1130F209E012E193F09020F701A02C0072D712C61
S1130F3081E00E94AE058F71893029F066E082E07D
S1130F400E94C605D4CF8FB7F8942F9A809084005E
S1130F50909085008FBF0E949D010E94AF0180E6A2
S1130F608EBD812F0E94A8016701102F1E0DF6016E
S1130F7081916F010E94A8011C11F9CF015010E06A
S1130F800F5F1F4F0E0D1F1DF2EA8F0E911C82186A
S1130F909308AA2497FCA094BA2C820C931CA41C3A
S1130FA0B51C772039F1F8018081C180D12CE12C66
S1130FB0F12C7601DD24CC24F82A8381C82A82818D
S1130FC0D82AD701C60188199909AA09BB098383BC
S1130FD09283A183B083512CF801E50DF11D80812A
S1130FE00E94A80153945710F7CFF801C382D2820C
S1130FF0E182F0820E94A3010E949F0166E082E0E8
S11310000E94C6058CA582608CA788A699A6AAA66C
S1131010BBA686E08093AB0884E08093270280E03F
S1131020DF91CF911F910F91FF90EF90DF90CF90C0
S1131030BF90AF909F908F907F905F904F903F9024
S11310402F9008953F924F925F926F927F928F926A
S11310509F92AF92BF92CF92DF92EF92FF920F9343
S11310601F93CF93DF93CDB7DEB729970FB6F894CC
S1131070DEBF0FBECDBFE82FF0E0E331F10510F085
S11310800C946111EA59FF4F0C94F4178FB7F8943C
S11310902091330290918503291307C09091820215
S11310A0911103C0109216088CC08FBFE091850384
S11310B0F0E0EE0FFF1FE75AFD4F0190F081E02DA5
S11310C07081672F6D5060931C0303851781D68050
S11310D0918580E02085AC01422B9A0180E0448117
S11310E0842BAF014B5F5F4F97E0DA011D929A9515
S11310F0E9F7208737838287E0918503F0E0EE0FDC
S1131100FF1FE75AFD4F0190F081E02D6D3110F083
S11311100C94B11080E08D29868315830387618741
S113112080911D0290911E02892B11F00C94B11034
S11311302FB7F89485E080931B0210921A02F09363
S11311402002E0931F0282E090E090931E028093BD
S11311501D021092180210921902715070931C0211
S11311602FBF8FB7F894909182038FBF9A3011F4F8
S11311700C9445119FB7F89480918F02811106C099
S113118081E080938F021092900201C080E09FBFA3
S1131190882311F40C9445110E9457029FB7F894C8
S11311A082B122E069C08FB7F8942091280290910F
S11311B0C008291309C090913202911105C0109200
S11311C02B028FBF0C9461118FBFE091C008F0E037
S11311D0EE0FFF1FE051FD4FC080D180F601418525
S11311E065815681978180E020858C01022B9801CE
S11311F01385928180E07181872B807399278164A4
S11312009868818388E8828314A6208731874D31CA
S113121008F076C0962F80E07C01E52A435F408386
S11312200E94D702D60118968C93189719969C930E
S113123019979FB7F89480910D029FBFF60184839C
S113124015821387E682F7828FB7F894909125026E
S1131250911116C092E09093250210920A028FBF5A
S11312608FE31A968C93C6010E942B02811114C03D
S11312709FB7F89482B124E0822782B90C94431179
S11312808FBFD0925802C09257021FB7F894809132
S1131290250281110EC003C00E94D70431C081E031
S11312A08093250210920A0283E00E94FA011FBF74
S11312B0DFCF809171028F3F49F481E090E020916B
S11312C00B02222329F080E090E002C081E090E04C
S11312D0811111C080910C028F3F19F410920C02FD
S11312E006C0E0910B02F0E0EF58FD4F108210921F
S11312F00B0280E001C085E01FBF882309F4B8CF4A
S11313000E94F20181E04FC78091FD07882309F410
S1131310D1C08091AB08813009F4CCC00E94FF0693
S1131320882309F4C7C08FB7F894E0908502F09041
S113133086028FBF1092FD078FE00E94AE05182F22
S113134080912702833011F0873031F485E0809357
S1131350AB0888E08093270212FF48C080912702DF
S1131360863011F4109227028091270281113EC029
S1131370143091F586E00E94AE058F71909172024F
S1131380292F26952695921B980F90937202E0912F
S11313903802F091390294A59B7F986094A786A7A0
S11313A00E94DF02A70147505109461B570B6A01EF
S11313B0EE24D7FCE094FE2CE0913802F09139023F
S11313C024A5226024A7C60ED71EE81EF91EC0A6B7
S11313D0D1A6E2A6F3A607C0E0913802F091390243
S11313E084A5857F84A785E08093270213FF62C0CC
S11313F080912702843009F04BC085E08093AB08CC
S11314001092270280913B02833019F410923B0220
S113141051C0E091B508F091B608928180E0218135
S1131420822B85FF10C087749C7C8134984859F4C2
S1131430978180E02681FC01E22B9F0181E090E00E
S11314402F3F3F4F11F480E090E08823A9F0809172
S11314507E03811111C012E010938C0281E080930D
S11314607E03809184009091850069E973E00E9475
S11314708F0210933B021EC010923B021092760220
S113148010921B0884E0809375020E94280212C007
S1131490853081F486E00E94AE0590918102292F67
S11314A026952695921B8F71980F9093810289E05F
S11314B08093270280912702882309F443C289304C
S11314C009F0AEC10E94AF0180E28EBD0DB407FEEB
S11314D0FDCF8EB51EBC0DB407FEFDCF2EB5233057
S11314E008F476C0822F90E08A970CF071C01EBC7D
S11314F0E0913802F09139026F010FEFC01AD00A5F
S11315002083022F0250073010F017E001C0102F83
S11315107601812C912CB12EBC0C80E00E94A80194
S1131520D7018D937D01682FC4010E94B1014C0144
S1131530BE10F3CF812F815090E001968C0D9D1D3C
S1131540E0913802F0913902328120E04181242B6C
S1131550277033272230310529F420913B022230B1
S1131560A9F50BC03FB7F89421E04091BE05433084
S113157008F020E03FBF222349F1011B102F7C011A
S1131580180F0AC00E94A801F70181937F01682FF8
S1131590C4010E94B1014C0180E01E11F3CF0E94EE
S11315A0A801682FC4010E94B1018C0180E00E944F
S11315B0A801682FC8010E94B1017C010E94A30107
S11315C0E0913802F091390285A705C00E94A30179
S11315D0EE24E394F12C0E949F0115E01093AB08D4
S11315E010922702EF2809F0A4C1C0903802D090CD
S11315F03902D60112969C91129780E011962C9193
S11316001197822B8770992720913B02029711F53D
S1131610223009F000C1E091B508F091B6081396A4
S11316209C9183819813F7C080916F008D7F809384
S11316306F0010927E0384A5816084A710923B0200
S11316401092760210921B0884E0809375020E9427
S11316502802E1C0211119C0C6010E941006882386
S1131660A1F01093C10282E08093C2021092C302DF
S1131670F60183818093C40281EC92E00E942707E3
S1131680811103C083E080933B02E0908400F090DA
S11316908500C6010E941006882321F0F4EEEF1A9B
S11316A0FCEFFF0AF0921303E0921203809184008E
S11316B0909185008701081B190BC801181619069B
S11316C08CF42091760221110AC020917E0321110D
S11316D009C00E94DE0580E88093760203C020687A
S11316E020937602D60119963C91199720E018961A
S11316F08C91282B10914002A12FB0E0FD01EE0F38
S1131700FF1FEE5FF74F8081918170917F038217F5
S1131710930759F4A155B74F8C91871709F449C021
S11317207F5F70937F037C931DC0A2E0B8E0EFEA73
S1131730F8E080E090E000E060E0182F4D915D91CA
S11317404217530789F48093400220917F03DC0100
S1131750A155B74F8C91821761F1822F8F5F8093CF
S11317607F038C9360E80CC04191172F141B611701
S113177010F4082F612F019685309105F1F68AC582
S113178080917F03982F9F779F3719F01091400223
S113179010C06F37D8F3EFEAF8E0282F2078908153
S11317A09F6798132083319638E0E43BF307B9F739
S11317B0EDCFD60113968C91E12FF0E0DF01A55413
S11317C0B74F9C91E154FA4F90FF04C09081891364
S11317D003C021C091609C9380831FB7F8948091CB
S11317E0BE058330B8F4E0911508E80FE33008F043
S11317F0E350F0E0EE0FFF1FE45DFD4FF080018148
S1131800D182C0828F5F8093BE0586E00E94FA0178
S1131810CF2CD02E1FBFD0923902C092380289C07B
S1131820982F9150933008F06DC091509230E0F5AC
S11318301091AB081130A9F480917E03811134C05A
S11318400E949D0183E080938C0210937E0380911B
S11318508400909185006BE273E00E948F0282E025
S11318603CC0833009F51330F9F40E94FF06882345
S1131870D9F08FE00E94AE0580918100806480934E
S1131880810080E286BB80916F00806280936F004C
S113189060915602606688E00E94C60566E082E0B8
S11318A00E94C60584E019C08091270281508230CD
S11318B0B0F48091AB08853091F40E94FF06882330
S11318C071F063E082E00E94C60580916F008F7D15
S11318D080936F001092FD0783E08093AB088091A2
S11318E02702813041F49091AB08933011F52F9A7F
S11318F08093AB081BC08230E1F48091AB08833045
S1131900C1F414C08730A9F40E94FF06882389F02B
S113191060915602606688E00E94C6058091AB081B
S1131920853021F484E08093AB0803C088E0809381
S1131930270280912702883029F41092270284E03C
S11319400E94FA018091270281111DC08091AB0889
S11319508530C9F48091FD07811115C080913B0247
S1131960811111C08091760281110DC080917E0396
S1131970811109C080917502823029F481E080933D
S113198075020E94280280912702811103C08AE017
S11319900E94FA0180917E03823009F092C4109271
S11319A07E0320918C02223009F494C0233009F480
S11319B099C0213009F085C48091840090918500FC
S11319C0C0901203D0901303C81AD90A80917602EA
S11319D0803851F41092760280917502823009F0B9
S11319E070C4209375025DC087FF03C01C141D04DE
S11319F0ECF0E0907302F090740280913B0281114C
S1131A0015C0C7010E942707182F811110C0F701C4
S1131A1084A58E7F84A781E080933B02F092B60870
S1131A20E092B50883E0809376024BC415E0809180
S1131A307602982F9F77913009F5807882608093A1
S1131A40760280E198E00E94B40229960FB6F894D9
S1131A50DEBF0FBECDBFDF91CF911F910F91FF90DD
S1131A60EF90DF90CF90BF90AF909F908F907F903A
S1131A706F905F904F903F900C94DE0587FF0AC0F3
S1131A801C141D043CF480E880937602C6010E9475
S1131A90DE0502C01092760210931B0881E0809349
S1131AA0750229960FB6F894DEBF0FBECDBFDF9145
S1131AB0CF911F910F91FF90EF90DF90CF90BF9047
S1131AC0AF909F908F907F906F905F904F903F90DA
S1131AD00C94280210923B021092760210921B087A
S1131AE084E0DDCF8091AB08823019F42093AB08F9
S1131AF009C080912702863029F41092270281E0E0
S1131B000E94AE0529960FB6F894DEBF0FBECDBF76
S1131B10DF91CF911F910F91FF90EF90DF90CF90C5
S1131B20BF90AF909F908F907F906F905F904F90F9
S1131B303F900C9425028FB7F89492E0909325027D
S1131B408FBF80910A028111BCC38091570290918A
S1131B5058022FE3DC011A962C930E942B0288234F
S1131B6009F4AFC389830E94D70469818091570225
S1131B70909158024EC08091750210927502853082
S1131B8019F4109232029DC3863009F49AC3873047
S1131B9009F497C32BC090917502009183031091AF
S1131BA08403913041F5809180038F5F809380039B
S1131BB0863008F580917602811112C080917E03EF
S1131BC081110EC0109374020093730290937602F5
S1131BD08BED91E10E94B4020E94DE0580E001C019
S1131BE085E080931B08811104C083E08093750213
S1131BF068C382E0FBCF1092750260911B08F80164
S1131C0082858F3309F05DC369830E94D70469819B
S1131C10C80129960FB6F894DEBF0FBECDBFDF9181
S1131C20CF911F910F91FF90EF90DF90CF90BF90D5
S1131C30AF909F908F907F906F905F904F903F9068
S1131C400C94EA058FB7F8949091BE05911101C0E8
S1131C50B8CAE0911508F0E0EE0FFF1FE45DFD4FF8
S1131C60008111818FBFD8011A962C911A9717966B
S1131C709C91179716968C912F3339F40E94D702B2
S1131C80C8010E9491048C010FC0D92EC12C5601A9
S1131C90A82A0E94D702A816B90619F0AB20A0946E
S1131CA019F48FB7F8948FBF9FB7F89480911508F3
S1131CB0E82FF0E0EE0FFF1FE45DFD4F118300837A
S1131CC08F5F833018F48093150802C010921508B2
S1131CD08091BE0581508093BE059FBFB3CF3FB6B0
S1131CE0F89480917D0290917E02A0917F02B09140
S1131CF080028C019D0140E050E0BA018A831B837D
S1131D002C833D834E835F8368877987EEE4AE2E10
S1131D10F3E8BF2EC12CD12CE12CF12C00E010E013
S1131D202A813B814C815D8160E070E080E090E03D
S1131D300E949D1729013A0100E20E94FA17490105
S1131D405A01D301C201B695A79597958795880D39
S1131D50991DAA1DBB1DB7FF04C0BF770196A11D25
S1131D60B11D80937D0290937E02A0937F02B09375
S1131D7080023FBE2FB7F894909387038093860325
S1131D802FBF9FC280915502811141C040910D081F
S1131D9050910E0860910F08709110082FB7F894B5
S1131DA08091170890911808A0911908B0911A0809
S1131DB0C0903402D0903502E0903602F0903702A1
S1131DC08C0D9D1DAE1DBF1D2FBF40930D0850935C
S1131DD00E0860930F0870931008109255022FB7E5
S1131DE0F89431E030937C0280933402909335026E
S1131DF0A0933602B0933702409317085093180803
S1131E006093190870931A082FBF0E9433060E942A
S1131E10690289E0C8C10E9469028FB7F8941092E0
S1131E207C02CFC98FB7F89410927D0310927C0383
S1131E301092AA081092A90810922A02109229025C
S1131E401092110310921003BCC91FB7F89482E0DA
S1131E50809324020E945D051FBF809107028111B7
S1131E6030C20E94A1010E949F018091AB088111A0
S1131E7049CE0EEF11E0C801019701960197E1F7F1
S1131E8016980E949D0186E090E0019701960197C3
S1131E90E1F7169A60E083E00E94C60568E082E0FC
S1131EA00E94C605C801019701960197E1F76DE408
S1131EB08EE00E94C60567EC89E00E94C60560E8D2
S1131EC085E00E94C6051092C0028BE08093560202
S1131ED06BE688E00E94C6052F9A81E08093AB08E8
S1131EE029960FB6F894DEBF0FBECDBFDF91CF9118
S1131EF01F910F91FF90EF90DF90CF90BF90AF9024
S1131F009F908F907F906F905F904F903F900C9434
S1131F107B053FB7F8941092AE088091820391E05C
S1131F20883009F090E021E0893009F020E0911137
S1131F3002C0222351F010928203E0911D03F0E0CD
S1131F40EE0FFF1FE357FD4F10823FBF911102C0F8
S1131F50222309F12FB7F894809114088F5F80939E
S1131F60140880918902833489F480910903909143
S1131F700803981301C007C08F5F8093090386305C
S1131F8010F01092090390E080E003C081E08927FB
S1131F9091E02FBF03C081115AC090E03FB7F8947D
S1131FA0209123023FBF222339F02FB7F8943AE05F
S1131FB0309382032FBF3FC04FB7F89430918D0206
S1131FC020918F024FBF6FB7F8945091080340914E
S1131FD009036FBF541709F131111FC03FB7F894BB
S1131FE022E020938D025FB7F8944091080320917A
S1131FF009035FBF421739F0E0910903F0E0E85F9D
S1132000FC4F228101C020E020938E0223E4209320
S1132010890210921D033FBF0CC02150223058F496
S11320202FB7F89435E43093890231E030931D03DF
S11320302FBF11E001C010E0992351F09FB7F8942D
S113204080931A029FBF81E10E94FA0101C010E04F
S11320500FB7F894809182038A3021F40E944502DC
S11320600FBF2FC10FBF112309F42BC18FB7F894F1
S11320701092B8081092B7081092870291E09093DA
S113208082038FBF0E943E05882309F41AC18FB7CB
S1132090F89499E0909382038FBF29960FB6F89431
S11320A0DEBF0FBECDBFDF91CF911F910F91FF9087
S11320B0EF90DF90CF90BF90AF909F908F907F90E4
S11320C06F905F904F903F900C9457028091C100A5
S11320D08F7B8093C1008091C1008F778093C10072
S11320E01092810310927A028091C10088608093DB
S11320F0C1008091C10080618093C1008091C100C2
S113210080688093C1008FB7F89410928203109274
S113211077028FBF10928202D4C080E144C08091C4
S1132120C100877F8093C1008091C1008F7E80931E
S1132130C100C7C010921E0210921D029FB7F894EE
S113214080911A029FBF90911902911183E020910E
S11321501F0230912002909118029111B2C088237D
S113216019F00E94F2011EC05FB7F89440918503F4
S1132170E42FF0E0EE0FFF1FE75AFD4F80819181BD
S11321802817390771F4842F8F5F8C3018F48093EB
S1132190850302C0109285038091820281111092FE
S11321A082025FBF80E029960FB6F894DEBF0FBEAF
S11321B0CDBFDF91CF911F910F91FF90EF90DF90F2
S11321C0CF90BF90AF909F908F907F906F905F90D3
S11321D04F903F900C94FA019FB7F89480911602A7
S11321E0C0901402D090150210913A029FBF811141
S11321F035C0EFB6F89480913202811128C08091E5
S11322002802E82FF0E0EE0FFF1FE051FD4FF080B1
S11322100181C082D1828F5F8C3018F480932802B0
S113222002C010922802909128028091C00898134D
S113223003C081E08093320280912B0281110BC094
S113224081E00E94FA0181E080932B0204C00E9485
S1132250F201FC2C0D2DEFBECF2CD02E9FB7F8949D
S1132260E12FF0E0EE0FFF1FEE5FFD4FC082D18241
S113227080912202112311F08B7F01C08D7F809306
S11322802202109217029FBF1CC010921E021092CD
S11322901D0267CF00934002802F90E0FC01EE0FF7
S11322A0FF1FEE5FF74F318320837F5F70937F03BF
S11322B0FC01E155F74F7083FC01E554F74F1082A0
S11322C05FCA29960FB6F894DEBF0FBECDBFDF916B
S11322D0CF911F910F91FF90EF90DF90CF90BF901F
S11322E0AF909F908F907F906F905F904F903F90B2
S11322F008958FB7F89408958FBF08951F920F9291
S11323000FB60F9211240BB60F922F933F934F9356
S11323105F936F937F938F939F93AF93BF93EF9349
S1132320FF930E94E9012091B30030E02F5F3F4FFB
S113233080913C0290913D02A0913E02B0913F02F7
S1132340820F931FA11DB11D80933C0290933D0207
S1132350A0933E02B0933F0278940E943306FF910B
S1132360EF91BF91AF919F918F917F916F915F9109
S11323704F913F912F910F900BBE0F900FBE0F9076
S11323801F9018951F920F920FB60F9211240BB63F
S11323900F922F933F934F935F936F937F938F93FA
S11323A09F93AF93BF93EF93FF930E94E901FF9133
S11323B0EF91BF91AF919F918F917F916F915F91B9
S11323C04F913F912F910F900BBE0F900FBE0F9026
S11323D01F9018951F920F920FB60F9211240BB6EF
S11323E00F922F933F934F935F936F937F938F93AA
S11323F09F93AF93BF93EF93FF932EB580917C038C
S113240090917D03009739F0E0911003F09111034E
S1132410E80FF91F20834091100350911103CA0162
S1132420019690931103809310032CB52F772CBD44
S11324306091290270912A028617970708F03FC01D
S11324402091A9083091AA08E0917C03F0917D03C2
S1132450455F5F4F64177507D8F4AB0119C02115A8
S1132460310549F0D901A80FB91F6C916EBD0DB4A7
S113247007FEFDCF04C01EBC0DB407FEFDCF6EB534
S1132480309721F0DF01A80FB91F6C93019602C0A9
S1132490415051098417950710F34CB540684CBD61
S11324A02115310531F0F901E80FF91F20812EBD06
S11324B001C01EBC909311038093100311C01092AD
S11324C07D0310927C031092AA081092A90810921E
S11324D02A021092290210921103109210038EB551
S11324E0FF91EF91BF91AF919F918F917F916F91E8
S11324F05F914F913F912F910F900BBE0F900FBEA4
S11325000F901F90189578941F920F920FB60F9208
S113251011240BB60F922F933F934F935F936F93B6
S11325207F938F939F93AF93BF93EF93FF93809188
S11325306F008D7F80936F0078948FB7F89490919B
S11325407E03913019F492E090937E038FBF0E9432
S11325502502FF91EF91BF91AF919F918F917F9150
S11325606F915F914F913F912F910F900BBE0F9000
S11325700FBE0F901F90189578941F920F920FB66C
S11325800F9211240F900FBE0F901F9018957894FE
S11325901F920F920FB60F9211240F900FBE0F903F
S11325A01F90189578941F920F920FB60F921124D2
S11325B00BB60F922F933F934F935F936F937F9339
S11325C08F939F93AF93BF93EF93FF93E6E8F0E06D
S11325D080819181808191812FB7F89490938602B4
S11325E08093850281E08093FD072FBF0E9425021E
S11325F0FF91EF91BF91AF919F918F917F916F91D7
S11326005F914F913F912F910F900BBE0F900FBE92
S11326100F901F90189578941F920F920FB60F92F7
S113262011242F938F939F93AF93BF932FB7F89455
S11326308091140390911503A0911603B091170390
S11326400196A11DB11D8093140390931503A093CB
S11326501603B09317032FBFBF91AF919F918F9132
S11326602F910F900FBE0F901F9018951F920F92ED
S11326700FB60F9211240BB60F922F933F934F93E3
S11326805F936F937F938F939F93AF93BF93EF93D6
S1132690FF938091C00087FF44C06091C6002091E1
S11326A01A0330911B032115310521F18091AC08E7
S11326B09091AD08F901E80FF91F6083019690939A
S11326C0AD088093AC082091B9083091BA088217FC
S11326D0930738F110921B0310921A03809181031F
S11326E08330F9F08091C1008F778093C1001092FC
S11326F0810317C06E3719F460E081E010C0809147
S113270012026D3721F48260809312020AC081FFA5
S113271005C08D7F8093120280E2682780E00E94CA
S11327205603FF91EF91BF91AF919F918F917F914C
S11327306F915F914F913F912F910F900BBE0F902E
S11327400FBE0F901F90189578941F920F920FB69A
S11327500F9211240BB60F92FF920F931F932F9396
S11327603F934F935F936F937F938F939F93AF9315
S1132770BF93CF93DF93EF93FF938091780290916F
S11327807902209100083091010882179307B8F468
S1132790E0918A02F0918B02E80FF91F20810196E3
S11327A090937902809378029FB7F8942093C6009F
S11327B08091C00080648093C0009FBFBFC010920E
S11327C08B0210928A0210927A028091C1008F7B50
S11327D08093C1000FB7F8948091120280FF0AC061
S11327E08E7F8093120280918803809354020E940A
S11327F00705A3C080918203843009F480C038F4B3
S11328008230E1F080F5813009F092C00CC086304E
S113281009F483C008F47AC0873009F485C088308D
S113282009F086C088C0809189020E944B05182F48
S113283083E080938203609189020AC08091140826
S11328400E944B05182F83E0809382036091140843
S11328508091B7089091B8080E9408039093B80833
S11328608093B70863C0E0911D03F0E0EE0FFF1FF3
S1132870E257FD4F80810E944B05182FF0901D03F5
S1132880CF2DD0E0FE01EE0FFF1FE257FD4F608118
S11328908091B7089091B8080E9408039093B808F3
S11328A08093B708809187028F5F8093870291E0BD
S11328B0F91223C020911B02E0911F02F091200223
S11328C0E20FF11D90812F5F20931B0230911C02B7
S11328D0321720F492E090938F0290E0CC0FDD1F2A
S11328E0FE01E357FD4F2081223039F08F3F09F478
S11328F004C0C257DD4F988319C084E012C0809190
S1132900B7080E944B05182F85E00BC08091B808CA
S11329100E944B05182F86E004C00E943E05182F24
S113292087E08093820302C088E003C0112329F06A
S113293089E0809382030E9457020FBFFF91EF91B9
S1132940DF91CF91BF91AF919F918F917F916F91C3
S11329505F914F913F912F911F910F91FF900F9095
S11329600BBE0F900FBE0F901F9018951F920F92E1
S11329700FB60F9211248F938091C80087FD809128
S1132980CE008F910F900FBE0F901F9018957894E2
S11329901F920F920FB60F9211240F900FBE0F903B
S11329A01F90189578941F920F920FB60F921124CE
S11329B00F900FBE0F901F90189578941F920F924E
S11329C00FB60F9211240F900FBE0F901F90189501
S11329D078941F920F920FB60F9211240F900FBE8E
S11329E00F901F90189578941F920F920FB60F9224
S11329F011248F939F9380919600909197009F91BB
S1132A008F910F900FBE0F901F90189578941F927E
S1132A100F920FB60F9211242F938F939F932FB77A
S1132A20F894809183029091840201969093840299
S1132A30809383022FBF9F918F912F910F900FBE90
S1132A400F901F901895CFB7F89414BE88E10FB675
S1132A50F89480936000109260000FBE43E150E050
S1132A606FEF70E081E492E00E9415188FEF80937D
S1132A7011088093B40856985E9854985C98809195
S1132A806F008F7D80936F000E94A1010E949F01BF
S1132A90279A0E949D010E9A169A81E992E09093DA
S1132AA0390280933802109281028AE5809372027F
S1132AB081E08093810080E28093B60083E080937C
S1132AC0B10080918400909185004AE720918400B0
S1132AD0309185002817390708F44150C901411184
S1132AE0F5CF8091B2009091B2009817E1F3209154
S1132AF08400309185008091B2009091B2009817C3
S1132B00E1F380918400909185004096821B930BA1
S1132B1035E0969587953A95E1F79093130880935D
S1132B2012081092B100109281001092B600109217
S1132B30B20010928500109284008FEF87BB86BB91
S1132B408091B6008571E1F70A9A099A089A129A57
S1132B50119A109A18B88FEF87B90C98149810929C
S1132B6095001092940080917100816080937100AF
S1132B7080919100887F82608093910010928500FB
S1132B801092840080916F00816080936F00809127
S1132B908100887F8260809381000E94D701D82FB2
S1132BA08F3F09F41FC10E942208F7CF8091B6001D
S1132BB081FDFCCF82E08093B0008091B60080FD5F
S1132BC0FCCF83E08093B1008091B60083FDFCCFFD
S1132BD086EE8093B30080917000826080937000D1
S1132BE00E9433062091100230911102C90101960E
S1132BF0A0E0B0E080937D0290937E02A0937F02D8
S1132C00B09380028CE198E090932D0280932C0283
S1132C108BE498E090932F0280932E028AE798E049
S1132C2090933102809330028FEF9FEF90930308CB
S1132C3080930208909305088093040890930708F2
S1132C4080930608909309088093080890930B08D2
S1132C5080930A082295207F209326028FEF809389
S1132C6071020E94D7018F3F09F412C10E94220809
S1132C70F8CF489F9001499F300D11242C533A4FAF
S1132C802193319301968C30910599F71092850325
S1132C90109233021092160881E080938202E0EFD2
S1132CA0F2E080E090E04FE2489F9001499F300DB0
S1132CB0112426573C4F2193319301968C30910572
S1132CC099F71092C0081092280210922B0281E00A
S1132CD08093320280917502811118C0809127027D
S1132CE0811114C08091AB08813029F480917E0356
S1132CF081110CC003C0853009F4D2C083E08093F5
S1132D0027020E94250285E0809375028FB7F8940C
S1132D10909182039A3041F090917702943021F09F
S1132D208FBF1092820204C08FBF8EE00E94FA010E
S1132D30CFB7F8944EC080917000837099F0809161
S1132D40B6008A71E1F78091B3009091B200891BBB
S1132D508C3010F492E007C08091B200853FD0F728
S1132D6093E001C095E080916E008670E9F4809153
S1132D706F008E72C9F4809171008E72A9F40CB444
S1132D8007FC12C08091C100887171F48091C90060
S1132D90887151F48091BC0082FD06C080917A0054
S1132DA087FF04C0E1E003C0E0E001C0E5E083B7D1
S1132DB09E1708F4E92FF0E0EE50FF4FE491807F76
S1132DC081608E2B83BF78948895F89483B78E7F27
S1132DD083BF0E94D7018F3F09F4ADCFCFBF0E94BC
S1132DE02208A6CF02E016E0609112087091130841
S1132DF080E090E02CE0660F771F881F991F2A95CA
S1132E00D1F720E031EE40E050E00E947B172150E2
S1132E1031092093C4003093C5000093C00010937F
S1132E20C2001092C1002093CC003093CD000093D7
S1132E30C8001093CA001092C90024E430E0309313
S1132E40FF072093FE0710928D0210928F028AE0F2
S1132E5080938203109287021092890210921408C0
S1132E601092B8081092B7081092AE0810921D0381
S1132E700E94C5011092090310920803D09388029E
S1132E800E94C7068091B60080628093B6008ECE01
S1132E90CFBF7894E9E5F2E080E090E04FE2E9CE3C
S1132EA01092320233CFAA1BBB1B51E107C0AA1FE9
S1132EB0BB1FA617B70710F0A61BB70B881F991FD7
S1132EC05A95A9F780959095BC01CD01089597FB7B
S1132ED0072E16F4009407D077FD09D00E945317EB
S1132EE007FC05D03EF4909581959F4F0895709509
S1132EF061957F4F0895A1E21A2EAA1BBB1BFD0109
S1132F000DC0AA1FBB1FEE1FFF1FA217B307E407C4
S1132F10F50720F0A21BB30BE40BF50B661F771F1C
S1132F20881F991F1A9469F76095709580959095FC
S1132F309B01AC01BD01CF010895DF93CF931F9393
S1132F400F939A9DF02D219FF00D8B9DF00D8A9D7E
S1132F50E02DF10D039FF00D029FE00DF11D4E9D3C
S1132F60E00DF11D5E9DF00D4F9DF00D7F936F936D
S1132F70BF92AF925F934F93D5010E9409188B01C2
S1132F80AC01D7010E940918EB01E80FF91FD60123
S1132F9022D02F913F91D6010E940918C60FD71F46
S1132FA0E81FF91FAF91BF9116D02F913F910E9456
S1132FB00918C60FD71FE81FF91FD6010E94091868
S1132FC0E60FF71F9801BE01CF0111240F911F9145
S1132FD0CF91DF9108950E940918460F571FC81F0B
S1132FE0D91F08F431960895EE0FFF1F0590F49150
S1132FF0E02D09940F930F7351F09695879577956B
S1133000679557954795379527950A95B1F70F9189
S11330100895A29FB001B39FC001A39F01D0B29FA6
S1133020700D811D1124911D0895DC0101C06D9363
S10F303041505040E0F70895F894FFCFA1
S113303C1E031E034D03FFFFFFFFFFFFFF220100D2
S105304C01007D
S9030000FC
